{
  "_format": "hh-sol-artifact-1",
  "contractName": "DeVote",
  "sourceName": "contracts/DeVote.sol",
  "abi": [
    {
      "inputs": [
        {
          "internalType": "string[]",
          "name": "candidateNames",
          "type": "string[]"
        },
        {
          "internalType": "string[]",
          "name": "stateList",
          "type": "string[]"
        }
      ],
      "stateMutability": "nonpayable",
      "type": "constructor"
    },
    {
      "inputs": [
        {
          "internalType": "uint256",
          "name": "",
          "type": "uint256"
        }
      ],
      "name": "candidates",
      "outputs": [
        {
          "internalType": "string",
          "name": "",
          "type": "string"
        }
      ],
      "stateMutability": "view",
      "type": "function"
    },
    {
      "inputs": [],
      "name": "getCandidates",
      "outputs": [
        {
          "internalType": "string[]",
          "name": "",
          "type": "string[]"
        }
      ],
      "stateMutability": "view",
      "type": "function"
    },
    {
      "inputs": [],
      "name": "getStateList",
      "outputs": [
        {
          "internalType": "string[]",
          "name": "",
          "type": "string[]"
        }
      ],
      "stateMutability": "view",
      "type": "function"
    },
    {
      "inputs": [],
      "name": "getVotes",
      "outputs": [
        {
          "components": [
            {
              "internalType": "string",
              "name": "state",
              "type": "string"
            },
            {
              "components": [
                {
                  "internalType": "string",
                  "name": "candidate",
                  "type": "string"
                },
                {
                  "internalType": "uint256",
                  "name": "votes",
                  "type": "uint256"
                }
              ],
              "internalType": "struct DeVote.CandidateVotes[]",
              "name": "votes",
              "type": "tuple[]"
            }
          ],
          "internalType": "struct DeVote.StateResult[]",
          "name": "",
          "type": "tuple[]"
        }
      ],
      "stateMutability": "view",
      "type": "function"
    },
    {
      "inputs": [
        {
          "internalType": "uint256",
          "name": "",
          "type": "uint256"
        }
      ],
      "name": "states",
      "outputs": [
        {
          "internalType": "string",
          "name": "",
          "type": "string"
        }
      ],
      "stateMutability": "view",
      "type": "function"
    },
    {
      "inputs": [
        {
          "internalType": "string",
          "name": "userId",
          "type": "string"
        },
        {
          "internalType": "string",
          "name": "candidateName",
          "type": "string"
        },
        {
          "internalType": "string",
          "name": "state",
          "type": "string"
        }
      ],
      "name": "vote",
      "outputs": [],
      "stateMutability": "nonpayable",
      "type": "function"
    }
  ],
  "bytecode": "0x60806040523480156200001157600080fd5b5060405162001cde38038062001cde833981810160405281019062000037919062000529565b81600090805190602001906200004f929190620001ad565b5060005b82518160ff161015620000dd576001816200006f9190620005ea565b6001848360ff16815181106200008a576200008962000626565b5b6020026020010151604051620000a19190620006a2565b908152602001604051809103902060006101000a81548160ff021916908360ff1602179055508080620000d490620006bb565b91505062000053565b508060029080519060200190620000f6929190620001ad565b5060005b81518160ff161015620001a45760005b83518160ff1610156200018d5760006003848460ff168151811062000134576200013362000626565b5b60200260200101516040516200014b9190620006a2565b908152602001604051809103902060000160008360ff1660ff1681526020019081526020016000208190555080806200018490620006bb565b9150506200010a565b5080806200019b90620006bb565b915050620000fa565b50505062000a10565b828054828255906000526020600020908101928215620001fa579160200282015b82811115620001f9578251829081620001e8919062000929565b5091602001919060010190620001ce565b5b5090506200020991906200020d565b5090565b5b8082111562000231576000818162000227919062000235565b506001016200020e565b5090565b508054620002439062000718565b6000825580601f1062000257575062000278565b601f0160209004906000526020600020908101906200027791906200027b565b5b50565b5b80821115620002965760008160009055506001016200027c565b5090565b6000604051905090565b600080fd5b600080fd5b600080fd5b6000601f19601f8301169050919050565b7f4e487b7100000000000000000000000000000000000000000000000000000000600052604160045260246000fd5b620002fe82620002b3565b810181811067ffffffffffffffff8211171562000320576200031f620002c4565b5b80604052505050565b6000620003356200029a565b9050620003438282620002f3565b919050565b600067ffffffffffffffff821115620003665762000365620002c4565b5b602082029050602081019050919050565b600080fd5b600080fd5b600067ffffffffffffffff8211156200039f576200039e620002c4565b5b620003aa82620002b3565b9050602081019050919050565b60005b83811015620003d7578082015181840152602081019050620003ba565b60008484015250505050565b6000620003fa620003f48462000381565b62000329565b9050828152602081018484840111156200041957620004186200037c565b5b62000426848285620003b7565b509392505050565b600082601f830112620004465762000445620002ae565b5b815162000458848260208601620003e3565b91505092915050565b600062000478620004728462000348565b62000329565b905080838252602082019050602084028301858111156200049e576200049d62000377565b5b835b81811015620004ec57805167ffffffffffffffff811115620004c757620004c6620002ae565b5b808601620004d689826200042e565b85526020850194505050602081019050620004a0565b5050509392505050565b600082601f8301126200050e576200050d620002ae565b5b81516200052084826020860162000461565b91505092915050565b60008060408385031215620005435762000542620002a4565b5b600083015167ffffffffffffffff811115620005645762000563620002a9565b5b6200057285828601620004f6565b925050602083015167ffffffffffffffff811115620005965762000595620002a9565b5b620005a485828601620004f6565b9150509250929050565b600060ff82169050919050565b7f4e487b7100000000000000000000000000000000000000000000000000000000600052601160045260246000fd5b6000620005f782620005ae565b91506200060483620005ae565b9250828201905060ff81111562000620576200061f620005bb565b5b92915050565b7f4e487b7100000000000000000000000000000000000000000000000000000000600052603260045260246000fd5b600081519050919050565b600081905092915050565b6000620006788262000655565b62000684818562000660565b935062000696818560208601620003b7565b80840191505092915050565b6000620006b082846200066b565b915081905092915050565b6000620006c882620005ae565b915060ff8203620006de57620006dd620005bb565b5b600182019050919050565b7f4e487b7100000000000000000000000000000000000000000000000000000000600052602260045260246000fd5b600060028204905060018216806200073157607f821691505b602082108103620007475762000746620006e9565b5b50919050565b60008190508160005260206000209050919050565b60006020601f8301049050919050565b600082821b905092915050565b600060088302620007b17fffffffffffffffffffffffffffffffffffffffffffffffffffffffffffffffff8262000772565b620007bd868362000772565b95508019841693508086168417925050509392505050565b6000819050919050565b6000819050919050565b60006200080a62000804620007fe84620007d5565b620007df565b620007d5565b9050919050565b6000819050919050565b6200082683620007e9565b6200083e620008358262000811565b8484546200077f565b825550505050565b600090565b6200085562000846565b620008628184846200081b565b505050565b5b818110156200088a576200087e6000826200084b565b60018101905062000868565b5050565b601f821115620008d957620008a3816200074d565b620008ae8462000762565b81016020851015620008be578190505b620008d6620008cd8562000762565b83018262000867565b50505b505050565b600082821c905092915050565b6000620008fe60001984600802620008de565b1980831691505092915050565b6000620009198383620008eb565b9150826002028217905092915050565b620009348262000655565b67ffffffffffffffff81111562000950576200094f620002c4565b5b6200095c825462000718565b620009698282856200088e565b600060209050601f831160018114620009a157600084156200098c578287015190505b6200099885826200090b565b86555062000a08565b601f198416620009b1866200074d565b60005b82811015620009db57848901518255600182019150602085019450602081019050620009b4565b86831015620009fb5784890151620009f7601f891682620008eb565b8355505b6001600288020188555050505b505050505050565b6112be8062000a206000396000f3fe608060405234801561001057600080fd5b50600436106100625760003560e01c8063017a91051461006757806306a49fce146100975780630dc96015146100b55780633477ee2e146100d357806350696b881461010357806395f59fe114610121575b600080fd5b610081600480360381019061007c91906109e1565b61013d565b60405161008e9190610a9e565b60405180910390f35b61009f6101e9565b6040516100ac9190610bcc565b60405180910390f35b6100bd6102c2565b6040516100ca9190610e02565b60405180910390f35b6100ed60048036038101906100e891906109e1565b610639565b6040516100fa9190610a9e565b60405180910390f35b61010b6106e5565b6040516101189190610bcc565b60405180910390f35b61013b60048036038101906101369190610f59565b6107be565b005b6002818154811061014d57600080fd5b9060005260206000200160009150905080546101689061102f565b80601f01602080910402602001604051908101604052809291908181526020018280546101949061102f565b80156101e15780601f106101b6576101008083540402835291602001916101e1565b820191906000526020600020905b8154815290600101906020018083116101c457829003601f168201915b505050505081565b60606000805480602002602001604051908101604052809291908181526020016000905b828210156102b957838290600052602060002001805461022c9061102f565b80601f01602080910402602001604051908101604052809291908181526020018280546102589061102f565b80156102a55780601f1061027a576101008083540402835291602001916102a5565b820191906000526020600020905b81548152906001019060200180831161028857829003601f168201915b50505050508152602001906001019061020d565b50505050905090565b6060600060028054905067ffffffffffffffff8111156102e5576102e4610e2e565b5b60405190808252806020026020018201604052801561031e57816020015b61030b610963565b8152602001906001900390816103035790505b50905060005b6002805490508160ff16101561063157600060028260ff168154811061034d5761034c611060565b5b9060005260206000200180546103629061102f565b80601f016020809104026020016040519081016040528092919081815260200182805461038e9061102f565b80156103db5780601f106103b0576101008083540402835291602001916103db565b820191906000526020600020905b8154815290600101906020018083116103be57829003601f168201915b5050505050905080838360ff16815181106103f9576103f8611060565b5b60200260200101516000018190525060008054905067ffffffffffffffff81111561042757610426610e2e565b5b60405190808252806020026020018201604052801561046057816020015b61044d61097d565b8152602001906001900390816104455790505b50838360ff168151811061047757610476611060565b5b60200260200101516020018190525060005b6000805490508160ff16101561061c5760008160ff16815481106104b0576104af611060565b5b9060005260206000200180546104c59061102f565b80601f01602080910402602001604051908101604052809291908181526020018280546104f19061102f565b801561053e5780601f106105135761010080835404028352916020019161053e565b820191906000526020600020905b81548152906001019060200180831161052157829003601f168201915b5050505050848460ff168151811061055957610558611060565b5b6020026020010151602001518260ff168151811061057a57610579611060565b5b60200260200101516000018190525060038260405161059991906110cb565b908152602001604051809103902060000160008260ff1660ff16815260200190815260200160002054848460ff16815181106105d8576105d7611060565b5b6020026020010151602001518260ff16815181106105f9576105f8611060565b5b6020026020010151602001818152505080806106149061111e565b915050610489565b505080806106299061111e565b915050610324565b508091505090565b6000818154811061064957600080fd5b9060005260206000200160009150905080546106649061102f565b80601f01602080910402602001604051908101604052809291908181526020018280546106909061102f565b80156106dd5780601f106106b2576101008083540402835291602001916106dd565b820191906000526020600020905b8154815290600101906020018083116106c057829003601f168201915b505050505081565b60606002805480602002602001604051908101604052809291908181526020016000905b828210156107b55783829060005260206000200180546107289061102f565b80601f01602080910402602001604051908101604052809291908181526020018280546107549061102f565b80156107a15780601f10610776576101008083540402835291602001916107a1565b820191906000526020600020905b81548152906001019060200180831161078457829003601f168201915b505050505081526020019060010190610709565b50505050905090565b6004836040516107ce91906110cb565b908152602001604051809103902060009054906101000a900460ff161561082a576040517f08c379a000000000000000000000000000000000000000000000000000000000815260040161082190611193565b60405180910390fd5b600060018360405161083c91906110cb565b908152602001604051809103902060009054906101000a900460ff1660ff161161089b576040517f08c379a0000000000000000000000000000000000000000000000000000000008152600401610892906111ff565b60405180910390fd5b6000600180846040516108ae91906110cb565b908152602001604051809103902060009054906101000a900460ff166108d4919061121f565b905060016004856040516108e891906110cb565b908152602001604051809103902060006101000a81548160ff021916908315150217905550600160038360405161091f91906110cb565b908152602001604051809103902060000160008360ff1660ff16815260200190815260200160002060008282546109569190611254565b9250508190555050505050565b604051806040016040528060608152602001606081525090565b604051806040016040528060608152602001600081525090565b6000604051905090565b600080fd5b600080fd5b6000819050919050565b6109be816109ab565b81146109c957600080fd5b50565b6000813590506109db816109b5565b92915050565b6000602082840312156109f7576109f66109a1565b5b6000610a05848285016109cc565b91505092915050565b600081519050919050565b600082825260208201905092915050565b60005b83811015610a48578082015181840152602081019050610a2d565b60008484015250505050565b6000601f19601f8301169050919050565b6000610a7082610a0e565b610a7a8185610a19565b9350610a8a818560208601610a2a565b610a9381610a54565b840191505092915050565b60006020820190508181036000830152610ab88184610a65565b905092915050565b600081519050919050565b600082825260208201905092915050565b6000819050602082019050919050565b600082825260208201905092915050565b6000610b0882610a0e565b610b128185610aec565b9350610b22818560208601610a2a565b610b2b81610a54565b840191505092915050565b6000610b428383610afd565b905092915050565b6000602082019050919050565b6000610b6282610ac0565b610b6c8185610acb565b935083602082028501610b7e85610adc565b8060005b85811015610bba5784840389528151610b9b8582610b36565b9450610ba683610b4a565b925060208a01995050600181019050610b82565b50829750879550505050505092915050565b60006020820190508181036000830152610be68184610b57565b905092915050565b600081519050919050565b600082825260208201905092915050565b6000819050602082019050919050565b600081519050919050565b600082825260208201905092915050565b6000819050602082019050919050565b610c4f816109ab565b82525050565b60006040830160008301518482036000860152610c728282610afd565b9150506020830151610c876020860182610c46565b508091505092915050565b6000610c9e8383610c55565b905092915050565b6000602082019050919050565b6000610cbe82610c1a565b610cc88185610c25565b935083602082028501610cda85610c36565b8060005b85811015610d165784840389528151610cf78582610c92565b9450610d0283610ca6565b925060208a01995050600181019050610cde565b50829750879550505050505092915050565b60006040830160008301518482036000860152610d458282610afd565b91505060208301518482036020860152610d5f8282610cb3565b9150508091505092915050565b6000610d788383610d28565b905092915050565b6000602082019050919050565b6000610d9882610bee565b610da28185610bf9565b935083602082028501610db485610c0a565b8060005b85811015610df05784840389528151610dd18582610d6c565b9450610ddc83610d80565b925060208a01995050600181019050610db8565b50829750879550505050505092915050565b60006020820190508181036000830152610e1c8184610d8d565b905092915050565b600080fd5b600080fd5b7f4e487b7100000000000000000000000000000000000000000000000000000000600052604160045260246000fd5b610e6682610a54565b810181811067ffffffffffffffff82111715610e8557610e84610e2e565b5b80604052505050565b6000610e98610997565b9050610ea48282610e5d565b919050565b600067ffffffffffffffff821115610ec457610ec3610e2e565b5b610ecd82610a54565b9050602081019050919050565b82818337600083830152505050565b6000610efc610ef784610ea9565b610e8e565b905082815260208101848484011115610f1857610f17610e29565b5b610f23848285610eda565b509392505050565b600082601f830112610f4057610f3f610e24565b5b8135610f50848260208601610ee9565b91505092915050565b600080600060608486031215610f7257610f716109a1565b5b600084013567ffffffffffffffff811115610f9057610f8f6109a6565b5b610f9c86828701610f2b565b935050602084013567ffffffffffffffff811115610fbd57610fbc6109a6565b5b610fc986828701610f2b565b925050604084013567ffffffffffffffff811115610fea57610fe96109a6565b5b610ff686828701610f2b565b9150509250925092565b7f4e487b7100000000000000000000000000000000000000000000000000000000600052602260045260246000fd5b6000600282049050600182168061104757607f821691505b60208210810361105a57611059611000565b5b50919050565b7f4e487b7100000000000000000000000000000000000000000000000000000000600052603260045260246000fd5b600081905092915050565b60006110a582610a0e565b6110af818561108f565b93506110bf818560208601610a2a565b80840191505092915050565b60006110d7828461109a565b915081905092915050565b7f4e487b7100000000000000000000000000000000000000000000000000000000600052601160045260246000fd5b600060ff82169050919050565b600061112982611111565b915060ff820361113c5761113b6110e2565b5b600182019050919050565b7f596f75206861766520616c726561647920766f7465642e000000000000000000600082015250565b600061117d601783610a19565b915061118882611147565b602082019050919050565b600060208201905081810360008301526111ac81611170565b9050919050565b7f496e76616c69642063616e646964617465206e616d652e000000000000000000600082015250565b60006111e9601783610a19565b91506111f4826111b3565b602082019050919050565b60006020820190508181036000830152611218816111dc565b9050919050565b600061122a82611111565b915061123583611111565b9250828203905060ff81111561124e5761124d6110e2565b5b92915050565b600061125f826109ab565b915061126a836109ab565b9250828201905080821115611282576112816110e2565b5b9291505056fea26469706673582212208e984c37d58dcaccce3a0e40c3510335fcc6961f17f958ea4c20c17935203b5564736f6c63430008180033",
  "linkReferences": {},
  "deployedLinkReferences": {}
}