{
  "contracts/DeVote.sol": {
    "DeVote": {
      "abi": [
        {
          "inputs": [
            {
              "internalType": "string[]",
              "name": "candidateNames",
              "type": "string[]"
            },
            {
              "internalType": "string[]",
              "name": "stateList",
              "type": "string[]"
            }
          ],
          "stateMutability": "nonpayable",
          "type": "constructor"
        },
        {
          "inputs": [
            {
              "internalType": "uint256",
              "name": "",
              "type": "uint256"
            }
          ],
          "name": "candidates",
          "outputs": [
            {
              "internalType": "string",
              "name": "",
              "type": "string"
            }
          ],
          "stateMutability": "view",
          "type": "function"
        },
        {
          "inputs": [],
          "name": "getCandidates",
          "outputs": [
            {
              "internalType": "string[]",
              "name": "",
              "type": "string[]"
            }
          ],
          "stateMutability": "view",
          "type": "function"
        },
        {
          "inputs": [],
          "name": "getStateList",
          "outputs": [
            {
              "internalType": "string[]",
              "name": "",
              "type": "string[]"
            }
          ],
          "stateMutability": "view",
          "type": "function"
        },
        {
          "inputs": [],
          "name": "getVotes",
          "outputs": [
            {
              "components": [
                {
                  "internalType": "string",
                  "name": "state",
                  "type": "string"
                },
                {
                  "components": [
                    {
                      "internalType": "string",
                      "name": "candidate",
                      "type": "string"
                    },
                    {
                      "internalType": "uint256",
                      "name": "votes",
                      "type": "uint256"
                    }
                  ],
                  "internalType": "struct DeVote.CandidateVotes[]",
                  "name": "votes",
                  "type": "tuple[]"
                }
              ],
              "internalType": "struct DeVote.StateResult[]",
              "name": "",
              "type": "tuple[]"
            }
          ],
          "stateMutability": "view",
          "type": "function"
        },
        {
          "inputs": [
            {
              "internalType": "uint256",
              "name": "",
              "type": "uint256"
            }
          ],
          "name": "states",
          "outputs": [
            {
              "internalType": "string",
              "name": "",
              "type": "string"
            }
          ],
          "stateMutability": "view",
          "type": "function"
        },
        {
          "inputs": [
            {
              "internalType": "string",
              "name": "userId",
              "type": "string"
            },
            {
              "internalType": "string",
              "name": "candidateName",
              "type": "string"
            },
            {
              "internalType": "string",
              "name": "state",
              "type": "string"
            }
          ],
          "name": "vote",
          "outputs": [],
          "stateMutability": "nonpayable",
          "type": "function"
        }
      ],
      "evm": {
        "bytecode": {
          "linkReferences": {},
          "object": "60806040523480156200001157600080fd5b5060405162001cde38038062001cde833981810160405281019062000037919062000529565b81600090805190602001906200004f929190620001ad565b5060005b82518160ff161015620000dd576001816200006f9190620005ea565b6001848360ff16815181106200008a576200008962000626565b5b6020026020010151604051620000a19190620006a2565b908152602001604051809103902060006101000a81548160ff021916908360ff1602179055508080620000d490620006bb565b91505062000053565b508060029080519060200190620000f6929190620001ad565b5060005b81518160ff161015620001a45760005b83518160ff1610156200018d5760006003848460ff168151811062000134576200013362000626565b5b60200260200101516040516200014b9190620006a2565b908152602001604051809103902060000160008360ff1660ff1681526020019081526020016000208190555080806200018490620006bb565b9150506200010a565b5080806200019b90620006bb565b915050620000fa565b50505062000a10565b828054828255906000526020600020908101928215620001fa579160200282015b82811115620001f9578251829081620001e8919062000929565b5091602001919060010190620001ce565b5b5090506200020991906200020d565b5090565b5b8082111562000231576000818162000227919062000235565b506001016200020e565b5090565b508054620002439062000718565b6000825580601f1062000257575062000278565b601f0160209004906000526020600020908101906200027791906200027b565b5b50565b5b80821115620002965760008160009055506001016200027c565b5090565b6000604051905090565b600080fd5b600080fd5b600080fd5b6000601f19601f8301169050919050565b7f4e487b7100000000000000000000000000000000000000000000000000000000600052604160045260246000fd5b620002fe82620002b3565b810181811067ffffffffffffffff8211171562000320576200031f620002c4565b5b80604052505050565b6000620003356200029a565b9050620003438282620002f3565b919050565b600067ffffffffffffffff821115620003665762000365620002c4565b5b602082029050602081019050919050565b600080fd5b600080fd5b600067ffffffffffffffff8211156200039f576200039e620002c4565b5b620003aa82620002b3565b9050602081019050919050565b60005b83811015620003d7578082015181840152602081019050620003ba565b60008484015250505050565b6000620003fa620003f48462000381565b62000329565b9050828152602081018484840111156200041957620004186200037c565b5b62000426848285620003b7565b509392505050565b600082601f830112620004465762000445620002ae565b5b815162000458848260208601620003e3565b91505092915050565b600062000478620004728462000348565b62000329565b905080838252602082019050602084028301858111156200049e576200049d62000377565b5b835b81811015620004ec57805167ffffffffffffffff811115620004c757620004c6620002ae565b5b808601620004d689826200042e565b85526020850194505050602081019050620004a0565b5050509392505050565b600082601f8301126200050e576200050d620002ae565b5b81516200052084826020860162000461565b91505092915050565b60008060408385031215620005435762000542620002a4565b5b600083015167ffffffffffffffff811115620005645762000563620002a9565b5b6200057285828601620004f6565b925050602083015167ffffffffffffffff811115620005965762000595620002a9565b5b620005a485828601620004f6565b9150509250929050565b600060ff82169050919050565b7f4e487b7100000000000000000000000000000000000000000000000000000000600052601160045260246000fd5b6000620005f782620005ae565b91506200060483620005ae565b9250828201905060ff81111562000620576200061f620005bb565b5b92915050565b7f4e487b7100000000000000000000000000000000000000000000000000000000600052603260045260246000fd5b600081519050919050565b600081905092915050565b6000620006788262000655565b62000684818562000660565b935062000696818560208601620003b7565b80840191505092915050565b6000620006b082846200066b565b915081905092915050565b6000620006c882620005ae565b915060ff8203620006de57620006dd620005bb565b5b600182019050919050565b7f4e487b7100000000000000000000000000000000000000000000000000000000600052602260045260246000fd5b600060028204905060018216806200073157607f821691505b602082108103620007475762000746620006e9565b5b50919050565b60008190508160005260206000209050919050565b60006020601f8301049050919050565b600082821b905092915050565b600060088302620007b17fffffffffffffffffffffffffffffffffffffffffffffffffffffffffffffffff8262000772565b620007bd868362000772565b95508019841693508086168417925050509392505050565b6000819050919050565b6000819050919050565b60006200080a62000804620007fe84620007d5565b620007df565b620007d5565b9050919050565b6000819050919050565b6200082683620007e9565b6200083e620008358262000811565b8484546200077f565b825550505050565b600090565b6200085562000846565b620008628184846200081b565b505050565b5b818110156200088a576200087e6000826200084b565b60018101905062000868565b5050565b601f821115620008d957620008a3816200074d565b620008ae8462000762565b81016020851015620008be578190505b620008d6620008cd8562000762565b83018262000867565b50505b505050565b600082821c905092915050565b6000620008fe60001984600802620008de565b1980831691505092915050565b6000620009198383620008eb565b9150826002028217905092915050565b620009348262000655565b67ffffffffffffffff81111562000950576200094f620002c4565b5b6200095c825462000718565b620009698282856200088e565b600060209050601f831160018114620009a157600084156200098c578287015190505b6200099885826200090b565b86555062000a08565b601f198416620009b1866200074d565b60005b82811015620009db57848901518255600182019150602085019450602081019050620009b4565b86831015620009fb5784890151620009f7601f891682620008eb565b8355505b6001600288020188555050505b505050505050565b6112be8062000a206000396000f3fe608060405234801561001057600080fd5b50600436106100625760003560e01c8063017a91051461006757806306a49fce146100975780630dc96015146100b55780633477ee2e146100d357806350696b881461010357806395f59fe114610121575b600080fd5b610081600480360381019061007c91906109e1565b61013d565b60405161008e9190610a9e565b60405180910390f35b61009f6101e9565b6040516100ac9190610bcc565b60405180910390f35b6100bd6102c2565b6040516100ca9190610e02565b60405180910390f35b6100ed60048036038101906100e891906109e1565b610639565b6040516100fa9190610a9e565b60405180910390f35b61010b6106e5565b6040516101189190610bcc565b60405180910390f35b61013b60048036038101906101369190610f59565b6107be565b005b6002818154811061014d57600080fd5b9060005260206000200160009150905080546101689061102f565b80601f01602080910402602001604051908101604052809291908181526020018280546101949061102f565b80156101e15780601f106101b6576101008083540402835291602001916101e1565b820191906000526020600020905b8154815290600101906020018083116101c457829003601f168201915b505050505081565b60606000805480602002602001604051908101604052809291908181526020016000905b828210156102b957838290600052602060002001805461022c9061102f565b80601f01602080910402602001604051908101604052809291908181526020018280546102589061102f565b80156102a55780601f1061027a576101008083540402835291602001916102a5565b820191906000526020600020905b81548152906001019060200180831161028857829003601f168201915b50505050508152602001906001019061020d565b50505050905090565b6060600060028054905067ffffffffffffffff8111156102e5576102e4610e2e565b5b60405190808252806020026020018201604052801561031e57816020015b61030b610963565b8152602001906001900390816103035790505b50905060005b6002805490508160ff16101561063157600060028260ff168154811061034d5761034c611060565b5b9060005260206000200180546103629061102f565b80601f016020809104026020016040519081016040528092919081815260200182805461038e9061102f565b80156103db5780601f106103b0576101008083540402835291602001916103db565b820191906000526020600020905b8154815290600101906020018083116103be57829003601f168201915b5050505050905080838360ff16815181106103f9576103f8611060565b5b60200260200101516000018190525060008054905067ffffffffffffffff81111561042757610426610e2e565b5b60405190808252806020026020018201604052801561046057816020015b61044d61097d565b8152602001906001900390816104455790505b50838360ff168151811061047757610476611060565b5b60200260200101516020018190525060005b6000805490508160ff16101561061c5760008160ff16815481106104b0576104af611060565b5b9060005260206000200180546104c59061102f565b80601f01602080910402602001604051908101604052809291908181526020018280546104f19061102f565b801561053e5780601f106105135761010080835404028352916020019161053e565b820191906000526020600020905b81548152906001019060200180831161052157829003601f168201915b5050505050848460ff168151811061055957610558611060565b5b6020026020010151602001518260ff168151811061057a57610579611060565b5b60200260200101516000018190525060038260405161059991906110cb565b908152602001604051809103902060000160008260ff1660ff16815260200190815260200160002054848460ff16815181106105d8576105d7611060565b5b6020026020010151602001518260ff16815181106105f9576105f8611060565b5b6020026020010151602001818152505080806106149061111e565b915050610489565b505080806106299061111e565b915050610324565b508091505090565b6000818154811061064957600080fd5b9060005260206000200160009150905080546106649061102f565b80601f01602080910402602001604051908101604052809291908181526020018280546106909061102f565b80156106dd5780601f106106b2576101008083540402835291602001916106dd565b820191906000526020600020905b8154815290600101906020018083116106c057829003601f168201915b505050505081565b60606002805480602002602001604051908101604052809291908181526020016000905b828210156107b55783829060005260206000200180546107289061102f565b80601f01602080910402602001604051908101604052809291908181526020018280546107549061102f565b80156107a15780601f10610776576101008083540402835291602001916107a1565b820191906000526020600020905b81548152906001019060200180831161078457829003601f168201915b505050505081526020019060010190610709565b50505050905090565b6004836040516107ce91906110cb565b908152602001604051809103902060009054906101000a900460ff161561082a576040517f08c379a000000000000000000000000000000000000000000000000000000000815260040161082190611193565b60405180910390fd5b600060018360405161083c91906110cb565b908152602001604051809103902060009054906101000a900460ff1660ff161161089b576040517f08c379a0000000000000000000000000000000000000000000000000000000008152600401610892906111ff565b60405180910390fd5b6000600180846040516108ae91906110cb565b908152602001604051809103902060009054906101000a900460ff166108d4919061121f565b905060016004856040516108e891906110cb565b908152602001604051809103902060006101000a81548160ff021916908315150217905550600160038360405161091f91906110cb565b908152602001604051809103902060000160008360ff1660ff16815260200190815260200160002060008282546109569190611254565b9250508190555050505050565b604051806040016040528060608152602001606081525090565b604051806040016040528060608152602001600081525090565b6000604051905090565b600080fd5b600080fd5b6000819050919050565b6109be816109ab565b81146109c957600080fd5b50565b6000813590506109db816109b5565b92915050565b6000602082840312156109f7576109f66109a1565b5b6000610a05848285016109cc565b91505092915050565b600081519050919050565b600082825260208201905092915050565b60005b83811015610a48578082015181840152602081019050610a2d565b60008484015250505050565b6000601f19601f8301169050919050565b6000610a7082610a0e565b610a7a8185610a19565b9350610a8a818560208601610a2a565b610a9381610a54565b840191505092915050565b60006020820190508181036000830152610ab88184610a65565b905092915050565b600081519050919050565b600082825260208201905092915050565b6000819050602082019050919050565b600082825260208201905092915050565b6000610b0882610a0e565b610b128185610aec565b9350610b22818560208601610a2a565b610b2b81610a54565b840191505092915050565b6000610b428383610afd565b905092915050565b6000602082019050919050565b6000610b6282610ac0565b610b6c8185610acb565b935083602082028501610b7e85610adc565b8060005b85811015610bba5784840389528151610b9b8582610b36565b9450610ba683610b4a565b925060208a01995050600181019050610b82565b50829750879550505050505092915050565b60006020820190508181036000830152610be68184610b57565b905092915050565b600081519050919050565b600082825260208201905092915050565b6000819050602082019050919050565b600081519050919050565b600082825260208201905092915050565b6000819050602082019050919050565b610c4f816109ab565b82525050565b60006040830160008301518482036000860152610c728282610afd565b9150506020830151610c876020860182610c46565b508091505092915050565b6000610c9e8383610c55565b905092915050565b6000602082019050919050565b6000610cbe82610c1a565b610cc88185610c25565b935083602082028501610cda85610c36565b8060005b85811015610d165784840389528151610cf78582610c92565b9450610d0283610ca6565b925060208a01995050600181019050610cde565b50829750879550505050505092915050565b60006040830160008301518482036000860152610d458282610afd565b91505060208301518482036020860152610d5f8282610cb3565b9150508091505092915050565b6000610d788383610d28565b905092915050565b6000602082019050919050565b6000610d9882610bee565b610da28185610bf9565b935083602082028501610db485610c0a565b8060005b85811015610df05784840389528151610dd18582610d6c565b9450610ddc83610d80565b925060208a01995050600181019050610db8565b50829750879550505050505092915050565b60006020820190508181036000830152610e1c8184610d8d565b905092915050565b600080fd5b600080fd5b7f4e487b7100000000000000000000000000000000000000000000000000000000600052604160045260246000fd5b610e6682610a54565b810181811067ffffffffffffffff82111715610e8557610e84610e2e565b5b80604052505050565b6000610e98610997565b9050610ea48282610e5d565b919050565b600067ffffffffffffffff821115610ec457610ec3610e2e565b5b610ecd82610a54565b9050602081019050919050565b82818337600083830152505050565b6000610efc610ef784610ea9565b610e8e565b905082815260208101848484011115610f1857610f17610e29565b5b610f23848285610eda565b509392505050565b600082601f830112610f4057610f3f610e24565b5b8135610f50848260208601610ee9565b91505092915050565b600080600060608486031215610f7257610f716109a1565b5b600084013567ffffffffffffffff811115610f9057610f8f6109a6565b5b610f9c86828701610f2b565b935050602084013567ffffffffffffffff811115610fbd57610fbc6109a6565b5b610fc986828701610f2b565b925050604084013567ffffffffffffffff811115610fea57610fe96109a6565b5b610ff686828701610f2b565b9150509250925092565b7f4e487b7100000000000000000000000000000000000000000000000000000000600052602260045260246000fd5b6000600282049050600182168061104757607f821691505b60208210810361105a57611059611000565b5b50919050565b7f4e487b7100000000000000000000000000000000000000000000000000000000600052603260045260246000fd5b600081905092915050565b60006110a582610a0e565b6110af818561108f565b93506110bf818560208601610a2a565b80840191505092915050565b60006110d7828461109a565b915081905092915050565b7f4e487b7100000000000000000000000000000000000000000000000000000000600052601160045260246000fd5b600060ff82169050919050565b600061112982611111565b915060ff820361113c5761113b6110e2565b5b600182019050919050565b7f596f75206861766520616c726561647920766f7465642e000000000000000000600082015250565b600061117d601783610a19565b915061118882611147565b602082019050919050565b600060208201905081810360008301526111ac81611170565b9050919050565b7f496e76616c69642063616e646964617465206e616d652e000000000000000000600082015250565b60006111e9601783610a19565b91506111f4826111b3565b602082019050919050565b60006020820190508181036000830152611218816111dc565b9050919050565b600061122a82611111565b915061123583611111565b9250828203905060ff81111561124e5761124d6110e2565b5b92915050565b600061125f826109ab565b915061126a836109ab565b9250828201905080821115611282576112816110e2565b5b9291505056fea26469706673582212208e984c37d58dcaccce3a0e40c3510335fcc6961f17f958ea4c20c17935203b5564736f6c63430008180033",
          "opcodes": "PUSH1 0x80 PUSH1 0x40 MSTORE CALLVALUE DUP1 ISZERO PUSH3 0x11 JUMPI PUSH1 0x0 DUP1 REVERT JUMPDEST POP PUSH1 0x40 MLOAD PUSH3 0x1CDE CODESIZE SUB DUP1 PUSH3 0x1CDE DUP4 CODECOPY DUP2 DUP2 ADD PUSH1 0x40 MSTORE DUP2 ADD SWAP1 PUSH3 0x37 SWAP2 SWAP1 PUSH3 0x529 JUMP JUMPDEST DUP2 PUSH1 0x0 SWAP1 DUP1 MLOAD SWAP1 PUSH1 0x20 ADD SWAP1 PUSH3 0x4F SWAP3 SWAP2 SWAP1 PUSH3 0x1AD JUMP JUMPDEST POP PUSH1 0x0 JUMPDEST DUP3 MLOAD DUP2 PUSH1 0xFF AND LT ISZERO PUSH3 0xDD JUMPI PUSH1 0x1 DUP2 PUSH3 0x6F SWAP2 SWAP1 PUSH3 0x5EA JUMP JUMPDEST PUSH1 0x1 DUP5 DUP4 PUSH1 0xFF AND DUP2 MLOAD DUP2 LT PUSH3 0x8A JUMPI PUSH3 0x89 PUSH3 0x626 JUMP JUMPDEST JUMPDEST PUSH1 0x20 MUL PUSH1 0x20 ADD ADD MLOAD PUSH1 0x40 MLOAD PUSH3 0xA1 SWAP2 SWAP1 PUSH3 0x6A2 JUMP JUMPDEST SWAP1 DUP2 MSTORE PUSH1 0x20 ADD PUSH1 0x40 MLOAD DUP1 SWAP2 SUB SWAP1 KECCAK256 PUSH1 0x0 PUSH2 0x100 EXP DUP2 SLOAD DUP2 PUSH1 0xFF MUL NOT AND SWAP1 DUP4 PUSH1 0xFF AND MUL OR SWAP1 SSTORE POP DUP1 DUP1 PUSH3 0xD4 SWAP1 PUSH3 0x6BB JUMP JUMPDEST SWAP2 POP POP PUSH3 0x53 JUMP JUMPDEST POP DUP1 PUSH1 0x2 SWAP1 DUP1 MLOAD SWAP1 PUSH1 0x20 ADD SWAP1 PUSH3 0xF6 SWAP3 SWAP2 SWAP1 PUSH3 0x1AD JUMP JUMPDEST POP PUSH1 0x0 JUMPDEST DUP2 MLOAD DUP2 PUSH1 0xFF AND LT ISZERO PUSH3 0x1A4 JUMPI PUSH1 0x0 JUMPDEST DUP4 MLOAD DUP2 PUSH1 0xFF AND LT ISZERO PUSH3 0x18D JUMPI PUSH1 0x0 PUSH1 0x3 DUP5 DUP5 PUSH1 0xFF AND DUP2 MLOAD DUP2 LT PUSH3 0x134 JUMPI PUSH3 0x133 PUSH3 0x626 JUMP JUMPDEST JUMPDEST PUSH1 0x20 MUL PUSH1 0x20 ADD ADD MLOAD PUSH1 0x40 MLOAD PUSH3 0x14B SWAP2 SWAP1 PUSH3 0x6A2 JUMP JUMPDEST SWAP1 DUP2 MSTORE PUSH1 0x20 ADD PUSH1 0x40 MLOAD DUP1 SWAP2 SUB SWAP1 KECCAK256 PUSH1 0x0 ADD PUSH1 0x0 DUP4 PUSH1 0xFF AND PUSH1 0xFF AND DUP2 MSTORE PUSH1 0x20 ADD SWAP1 DUP2 MSTORE PUSH1 0x20 ADD PUSH1 0x0 KECCAK256 DUP2 SWAP1 SSTORE POP DUP1 DUP1 PUSH3 0x184 SWAP1 PUSH3 0x6BB JUMP JUMPDEST SWAP2 POP POP PUSH3 0x10A JUMP JUMPDEST POP DUP1 DUP1 PUSH3 0x19B SWAP1 PUSH3 0x6BB JUMP JUMPDEST SWAP2 POP POP PUSH3 0xFA JUMP JUMPDEST POP POP POP PUSH3 0xA10 JUMP JUMPDEST DUP3 DUP1 SLOAD DUP3 DUP3 SSTORE SWAP1 PUSH1 0x0 MSTORE PUSH1 0x20 PUSH1 0x0 KECCAK256 SWAP1 DUP2 ADD SWAP3 DUP3 ISZERO PUSH3 0x1FA JUMPI SWAP2 PUSH1 0x20 MUL DUP3 ADD JUMPDEST DUP3 DUP2 GT ISZERO PUSH3 0x1F9 JUMPI DUP3 MLOAD DUP3 SWAP1 DUP2 PUSH3 0x1E8 SWAP2 SWAP1 PUSH3 0x929 JUMP JUMPDEST POP SWAP2 PUSH1 0x20 ADD SWAP2 SWAP1 PUSH1 0x1 ADD SWAP1 PUSH3 0x1CE JUMP JUMPDEST JUMPDEST POP SWAP1 POP PUSH3 0x209 SWAP2 SWAP1 PUSH3 0x20D JUMP JUMPDEST POP SWAP1 JUMP JUMPDEST JUMPDEST DUP1 DUP3 GT ISZERO PUSH3 0x231 JUMPI PUSH1 0x0 DUP2 DUP2 PUSH3 0x227 SWAP2 SWAP1 PUSH3 0x235 JUMP JUMPDEST POP PUSH1 0x1 ADD PUSH3 0x20E JUMP JUMPDEST POP SWAP1 JUMP JUMPDEST POP DUP1 SLOAD PUSH3 0x243 SWAP1 PUSH3 0x718 JUMP JUMPDEST PUSH1 0x0 DUP3 SSTORE DUP1 PUSH1 0x1F LT PUSH3 0x257 JUMPI POP PUSH3 0x278 JUMP JUMPDEST PUSH1 0x1F ADD PUSH1 0x20 SWAP1 DIV SWAP1 PUSH1 0x0 MSTORE PUSH1 0x20 PUSH1 0x0 KECCAK256 SWAP1 DUP2 ADD SWAP1 PUSH3 0x277 SWAP2 SWAP1 PUSH3 0x27B JUMP JUMPDEST JUMPDEST POP JUMP JUMPDEST JUMPDEST DUP1 DUP3 GT ISZERO PUSH3 0x296 JUMPI PUSH1 0x0 DUP2 PUSH1 0x0 SWAP1 SSTORE POP PUSH1 0x1 ADD PUSH3 0x27C JUMP JUMPDEST POP SWAP1 JUMP JUMPDEST PUSH1 0x0 PUSH1 0x40 MLOAD SWAP1 POP SWAP1 JUMP JUMPDEST PUSH1 0x0 DUP1 REVERT JUMPDEST PUSH1 0x0 DUP1 REVERT JUMPDEST PUSH1 0x0 DUP1 REVERT JUMPDEST PUSH1 0x0 PUSH1 0x1F NOT PUSH1 0x1F DUP4 ADD AND SWAP1 POP SWAP2 SWAP1 POP JUMP JUMPDEST PUSH32 0x4E487B7100000000000000000000000000000000000000000000000000000000 PUSH1 0x0 MSTORE PUSH1 0x41 PUSH1 0x4 MSTORE PUSH1 0x24 PUSH1 0x0 REVERT JUMPDEST PUSH3 0x2FE DUP3 PUSH3 0x2B3 JUMP JUMPDEST DUP2 ADD DUP2 DUP2 LT PUSH8 0xFFFFFFFFFFFFFFFF DUP3 GT OR ISZERO PUSH3 0x320 JUMPI PUSH3 0x31F PUSH3 0x2C4 JUMP JUMPDEST JUMPDEST DUP1 PUSH1 0x40 MSTORE POP POP POP JUMP JUMPDEST PUSH1 0x0 PUSH3 0x335 PUSH3 0x29A JUMP JUMPDEST SWAP1 POP PUSH3 0x343 DUP3 DUP3 PUSH3 0x2F3 JUMP JUMPDEST SWAP2 SWAP1 POP JUMP JUMPDEST PUSH1 0x0 PUSH8 0xFFFFFFFFFFFFFFFF DUP3 GT ISZERO PUSH3 0x366 JUMPI PUSH3 0x365 PUSH3 0x2C4 JUMP JUMPDEST JUMPDEST PUSH1 0x20 DUP3 MUL SWAP1 POP PUSH1 0x20 DUP2 ADD SWAP1 POP SWAP2 SWAP1 POP JUMP JUMPDEST PUSH1 0x0 DUP1 REVERT JUMPDEST PUSH1 0x0 DUP1 REVERT JUMPDEST PUSH1 0x0 PUSH8 0xFFFFFFFFFFFFFFFF DUP3 GT ISZERO PUSH3 0x39F JUMPI PUSH3 0x39E PUSH3 0x2C4 JUMP JUMPDEST JUMPDEST PUSH3 0x3AA DUP3 PUSH3 0x2B3 JUMP JUMPDEST SWAP1 POP PUSH1 0x20 DUP2 ADD SWAP1 POP SWAP2 SWAP1 POP JUMP JUMPDEST PUSH1 0x0 JUMPDEST DUP4 DUP2 LT ISZERO PUSH3 0x3D7 JUMPI DUP1 DUP3 ADD MLOAD DUP2 DUP5 ADD MSTORE PUSH1 0x20 DUP2 ADD SWAP1 POP PUSH3 0x3BA JUMP JUMPDEST PUSH1 0x0 DUP5 DUP5 ADD MSTORE POP POP POP POP JUMP JUMPDEST PUSH1 0x0 PUSH3 0x3FA PUSH3 0x3F4 DUP5 PUSH3 0x381 JUMP JUMPDEST PUSH3 0x329 JUMP JUMPDEST SWAP1 POP DUP3 DUP2 MSTORE PUSH1 0x20 DUP2 ADD DUP5 DUP5 DUP5 ADD GT ISZERO PUSH3 0x419 JUMPI PUSH3 0x418 PUSH3 0x37C JUMP JUMPDEST JUMPDEST PUSH3 0x426 DUP5 DUP3 DUP6 PUSH3 0x3B7 JUMP JUMPDEST POP SWAP4 SWAP3 POP POP POP JUMP JUMPDEST PUSH1 0x0 DUP3 PUSH1 0x1F DUP4 ADD SLT PUSH3 0x446 JUMPI PUSH3 0x445 PUSH3 0x2AE JUMP JUMPDEST JUMPDEST DUP2 MLOAD PUSH3 0x458 DUP5 DUP3 PUSH1 0x20 DUP7 ADD PUSH3 0x3E3 JUMP JUMPDEST SWAP2 POP POP SWAP3 SWAP2 POP POP JUMP JUMPDEST PUSH1 0x0 PUSH3 0x478 PUSH3 0x472 DUP5 PUSH3 0x348 JUMP JUMPDEST PUSH3 0x329 JUMP JUMPDEST SWAP1 POP DUP1 DUP4 DUP3 MSTORE PUSH1 0x20 DUP3 ADD SWAP1 POP PUSH1 0x20 DUP5 MUL DUP4 ADD DUP6 DUP2 GT ISZERO PUSH3 0x49E JUMPI PUSH3 0x49D PUSH3 0x377 JUMP JUMPDEST JUMPDEST DUP4 JUMPDEST DUP2 DUP2 LT ISZERO PUSH3 0x4EC JUMPI DUP1 MLOAD PUSH8 0xFFFFFFFFFFFFFFFF DUP2 GT ISZERO PUSH3 0x4C7 JUMPI PUSH3 0x4C6 PUSH3 0x2AE JUMP JUMPDEST JUMPDEST DUP1 DUP7 ADD PUSH3 0x4D6 DUP10 DUP3 PUSH3 0x42E JUMP JUMPDEST DUP6 MSTORE PUSH1 0x20 DUP6 ADD SWAP5 POP POP POP PUSH1 0x20 DUP2 ADD SWAP1 POP PUSH3 0x4A0 JUMP JUMPDEST POP POP POP SWAP4 SWAP3 POP POP POP JUMP JUMPDEST PUSH1 0x0 DUP3 PUSH1 0x1F DUP4 ADD SLT PUSH3 0x50E JUMPI PUSH3 0x50D PUSH3 0x2AE JUMP JUMPDEST JUMPDEST DUP2 MLOAD PUSH3 0x520 DUP5 DUP3 PUSH1 0x20 DUP7 ADD PUSH3 0x461 JUMP JUMPDEST SWAP2 POP POP SWAP3 SWAP2 POP POP JUMP JUMPDEST PUSH1 0x0 DUP1 PUSH1 0x40 DUP4 DUP6 SUB SLT ISZERO PUSH3 0x543 JUMPI PUSH3 0x542 PUSH3 0x2A4 JUMP JUMPDEST JUMPDEST PUSH1 0x0 DUP4 ADD MLOAD PUSH8 0xFFFFFFFFFFFFFFFF DUP2 GT ISZERO PUSH3 0x564 JUMPI PUSH3 0x563 PUSH3 0x2A9 JUMP JUMPDEST JUMPDEST PUSH3 0x572 DUP6 DUP3 DUP7 ADD PUSH3 0x4F6 JUMP JUMPDEST SWAP3 POP POP PUSH1 0x20 DUP4 ADD MLOAD PUSH8 0xFFFFFFFFFFFFFFFF DUP2 GT ISZERO PUSH3 0x596 JUMPI PUSH3 0x595 PUSH3 0x2A9 JUMP JUMPDEST JUMPDEST PUSH3 0x5A4 DUP6 DUP3 DUP7 ADD PUSH3 0x4F6 JUMP JUMPDEST SWAP2 POP POP SWAP3 POP SWAP3 SWAP1 POP JUMP JUMPDEST PUSH1 0x0 PUSH1 0xFF DUP3 AND SWAP1 POP SWAP2 SWAP1 POP JUMP JUMPDEST PUSH32 0x4E487B7100000000000000000000000000000000000000000000000000000000 PUSH1 0x0 MSTORE PUSH1 0x11 PUSH1 0x4 MSTORE PUSH1 0x24 PUSH1 0x0 REVERT JUMPDEST PUSH1 0x0 PUSH3 0x5F7 DUP3 PUSH3 0x5AE JUMP JUMPDEST SWAP2 POP PUSH3 0x604 DUP4 PUSH3 0x5AE JUMP JUMPDEST SWAP3 POP DUP3 DUP3 ADD SWAP1 POP PUSH1 0xFF DUP2 GT ISZERO PUSH3 0x620 JUMPI PUSH3 0x61F PUSH3 0x5BB JUMP JUMPDEST JUMPDEST SWAP3 SWAP2 POP POP JUMP JUMPDEST PUSH32 0x4E487B7100000000000000000000000000000000000000000000000000000000 PUSH1 0x0 MSTORE PUSH1 0x32 PUSH1 0x4 MSTORE PUSH1 0x24 PUSH1 0x0 REVERT JUMPDEST PUSH1 0x0 DUP2 MLOAD SWAP1 POP SWAP2 SWAP1 POP JUMP JUMPDEST PUSH1 0x0 DUP2 SWAP1 POP SWAP3 SWAP2 POP POP JUMP JUMPDEST PUSH1 0x0 PUSH3 0x678 DUP3 PUSH3 0x655 JUMP JUMPDEST PUSH3 0x684 DUP2 DUP6 PUSH3 0x660 JUMP JUMPDEST SWAP4 POP PUSH3 0x696 DUP2 DUP6 PUSH1 0x20 DUP7 ADD PUSH3 0x3B7 JUMP JUMPDEST DUP1 DUP5 ADD SWAP2 POP POP SWAP3 SWAP2 POP POP JUMP JUMPDEST PUSH1 0x0 PUSH3 0x6B0 DUP3 DUP5 PUSH3 0x66B JUMP JUMPDEST SWAP2 POP DUP2 SWAP1 POP SWAP3 SWAP2 POP POP JUMP JUMPDEST PUSH1 0x0 PUSH3 0x6C8 DUP3 PUSH3 0x5AE JUMP JUMPDEST SWAP2 POP PUSH1 0xFF DUP3 SUB PUSH3 0x6DE JUMPI PUSH3 0x6DD PUSH3 0x5BB JUMP JUMPDEST JUMPDEST PUSH1 0x1 DUP3 ADD SWAP1 POP SWAP2 SWAP1 POP JUMP JUMPDEST PUSH32 0x4E487B7100000000000000000000000000000000000000000000000000000000 PUSH1 0x0 MSTORE PUSH1 0x22 PUSH1 0x4 MSTORE PUSH1 0x24 PUSH1 0x0 REVERT JUMPDEST PUSH1 0x0 PUSH1 0x2 DUP3 DIV SWAP1 POP PUSH1 0x1 DUP3 AND DUP1 PUSH3 0x731 JUMPI PUSH1 0x7F DUP3 AND SWAP2 POP JUMPDEST PUSH1 0x20 DUP3 LT DUP2 SUB PUSH3 0x747 JUMPI PUSH3 0x746 PUSH3 0x6E9 JUMP JUMPDEST JUMPDEST POP SWAP2 SWAP1 POP JUMP JUMPDEST PUSH1 0x0 DUP2 SWAP1 POP DUP2 PUSH1 0x0 MSTORE PUSH1 0x20 PUSH1 0x0 KECCAK256 SWAP1 POP SWAP2 SWAP1 POP JUMP JUMPDEST PUSH1 0x0 PUSH1 0x20 PUSH1 0x1F DUP4 ADD DIV SWAP1 POP SWAP2 SWAP1 POP JUMP JUMPDEST PUSH1 0x0 DUP3 DUP3 SHL SWAP1 POP SWAP3 SWAP2 POP POP JUMP JUMPDEST PUSH1 0x0 PUSH1 0x8 DUP4 MUL PUSH3 0x7B1 PUSH32 0xFFFFFFFFFFFFFFFFFFFFFFFFFFFFFFFFFFFFFFFFFFFFFFFFFFFFFFFFFFFFFFFF DUP3 PUSH3 0x772 JUMP JUMPDEST PUSH3 0x7BD DUP7 DUP4 PUSH3 0x772 JUMP JUMPDEST SWAP6 POP DUP1 NOT DUP5 AND SWAP4 POP DUP1 DUP7 AND DUP5 OR SWAP3 POP POP POP SWAP4 SWAP3 POP POP POP JUMP JUMPDEST PUSH1 0x0 DUP2 SWAP1 POP SWAP2 SWAP1 POP JUMP JUMPDEST PUSH1 0x0 DUP2 SWAP1 POP SWAP2 SWAP1 POP JUMP JUMPDEST PUSH1 0x0 PUSH3 0x80A PUSH3 0x804 PUSH3 0x7FE DUP5 PUSH3 0x7D5 JUMP JUMPDEST PUSH3 0x7DF JUMP JUMPDEST PUSH3 0x7D5 JUMP JUMPDEST SWAP1 POP SWAP2 SWAP1 POP JUMP JUMPDEST PUSH1 0x0 DUP2 SWAP1 POP SWAP2 SWAP1 POP JUMP JUMPDEST PUSH3 0x826 DUP4 PUSH3 0x7E9 JUMP JUMPDEST PUSH3 0x83E PUSH3 0x835 DUP3 PUSH3 0x811 JUMP JUMPDEST DUP5 DUP5 SLOAD PUSH3 0x77F JUMP JUMPDEST DUP3 SSTORE POP POP POP POP JUMP JUMPDEST PUSH1 0x0 SWAP1 JUMP JUMPDEST PUSH3 0x855 PUSH3 0x846 JUMP JUMPDEST PUSH3 0x862 DUP2 DUP5 DUP5 PUSH3 0x81B JUMP JUMPDEST POP POP POP JUMP JUMPDEST JUMPDEST DUP2 DUP2 LT ISZERO PUSH3 0x88A JUMPI PUSH3 0x87E PUSH1 0x0 DUP3 PUSH3 0x84B JUMP JUMPDEST PUSH1 0x1 DUP2 ADD SWAP1 POP PUSH3 0x868 JUMP JUMPDEST POP POP JUMP JUMPDEST PUSH1 0x1F DUP3 GT ISZERO PUSH3 0x8D9 JUMPI PUSH3 0x8A3 DUP2 PUSH3 0x74D JUMP JUMPDEST PUSH3 0x8AE DUP5 PUSH3 0x762 JUMP JUMPDEST DUP2 ADD PUSH1 0x20 DUP6 LT ISZERO PUSH3 0x8BE JUMPI DUP2 SWAP1 POP JUMPDEST PUSH3 0x8D6 PUSH3 0x8CD DUP6 PUSH3 0x762 JUMP JUMPDEST DUP4 ADD DUP3 PUSH3 0x867 JUMP JUMPDEST POP POP JUMPDEST POP POP POP JUMP JUMPDEST PUSH1 0x0 DUP3 DUP3 SHR SWAP1 POP SWAP3 SWAP2 POP POP JUMP JUMPDEST PUSH1 0x0 PUSH3 0x8FE PUSH1 0x0 NOT DUP5 PUSH1 0x8 MUL PUSH3 0x8DE JUMP JUMPDEST NOT DUP1 DUP4 AND SWAP2 POP POP SWAP3 SWAP2 POP POP JUMP JUMPDEST PUSH1 0x0 PUSH3 0x919 DUP4 DUP4 PUSH3 0x8EB JUMP JUMPDEST SWAP2 POP DUP3 PUSH1 0x2 MUL DUP3 OR SWAP1 POP SWAP3 SWAP2 POP POP JUMP JUMPDEST PUSH3 0x934 DUP3 PUSH3 0x655 JUMP JUMPDEST PUSH8 0xFFFFFFFFFFFFFFFF DUP2 GT ISZERO PUSH3 0x950 JUMPI PUSH3 0x94F PUSH3 0x2C4 JUMP JUMPDEST JUMPDEST PUSH3 0x95C DUP3 SLOAD PUSH3 0x718 JUMP JUMPDEST PUSH3 0x969 DUP3 DUP3 DUP6 PUSH3 0x88E JUMP JUMPDEST PUSH1 0x0 PUSH1 0x20 SWAP1 POP PUSH1 0x1F DUP4 GT PUSH1 0x1 DUP2 EQ PUSH3 0x9A1 JUMPI PUSH1 0x0 DUP5 ISZERO PUSH3 0x98C JUMPI DUP3 DUP8 ADD MLOAD SWAP1 POP JUMPDEST PUSH3 0x998 DUP6 DUP3 PUSH3 0x90B JUMP JUMPDEST DUP7 SSTORE POP PUSH3 0xA08 JUMP JUMPDEST PUSH1 0x1F NOT DUP5 AND PUSH3 0x9B1 DUP7 PUSH3 0x74D JUMP JUMPDEST PUSH1 0x0 JUMPDEST DUP3 DUP2 LT ISZERO PUSH3 0x9DB JUMPI DUP5 DUP10 ADD MLOAD DUP3 SSTORE PUSH1 0x1 DUP3 ADD SWAP2 POP PUSH1 0x20 DUP6 ADD SWAP5 POP PUSH1 0x20 DUP2 ADD SWAP1 POP PUSH3 0x9B4 JUMP JUMPDEST DUP7 DUP4 LT ISZERO PUSH3 0x9FB JUMPI DUP5 DUP10 ADD MLOAD PUSH3 0x9F7 PUSH1 0x1F DUP10 AND DUP3 PUSH3 0x8EB JUMP JUMPDEST DUP4 SSTORE POP JUMPDEST PUSH1 0x1 PUSH1 0x2 DUP9 MUL ADD DUP9 SSTORE POP POP POP JUMPDEST POP POP POP POP POP POP JUMP JUMPDEST PUSH2 0x12BE DUP1 PUSH3 0xA20 PUSH1 0x0 CODECOPY PUSH1 0x0 RETURN INVALID PUSH1 0x80 PUSH1 0x40 MSTORE CALLVALUE DUP1 ISZERO PUSH2 0x10 JUMPI PUSH1 0x0 DUP1 REVERT JUMPDEST POP PUSH1 0x4 CALLDATASIZE LT PUSH2 0x62 JUMPI PUSH1 0x0 CALLDATALOAD PUSH1 0xE0 SHR DUP1 PUSH4 0x17A9105 EQ PUSH2 0x67 JUMPI DUP1 PUSH4 0x6A49FCE EQ PUSH2 0x97 JUMPI DUP1 PUSH4 0xDC96015 EQ PUSH2 0xB5 JUMPI DUP1 PUSH4 0x3477EE2E EQ PUSH2 0xD3 JUMPI DUP1 PUSH4 0x50696B88 EQ PUSH2 0x103 JUMPI DUP1 PUSH4 0x95F59FE1 EQ PUSH2 0x121 JUMPI JUMPDEST PUSH1 0x0 DUP1 REVERT JUMPDEST PUSH2 0x81 PUSH1 0x4 DUP1 CALLDATASIZE SUB DUP2 ADD SWAP1 PUSH2 0x7C SWAP2 SWAP1 PUSH2 0x9E1 JUMP JUMPDEST PUSH2 0x13D JUMP JUMPDEST PUSH1 0x40 MLOAD PUSH2 0x8E SWAP2 SWAP1 PUSH2 0xA9E JUMP JUMPDEST PUSH1 0x40 MLOAD DUP1 SWAP2 SUB SWAP1 RETURN JUMPDEST PUSH2 0x9F PUSH2 0x1E9 JUMP JUMPDEST PUSH1 0x40 MLOAD PUSH2 0xAC SWAP2 SWAP1 PUSH2 0xBCC JUMP JUMPDEST PUSH1 0x40 MLOAD DUP1 SWAP2 SUB SWAP1 RETURN JUMPDEST PUSH2 0xBD PUSH2 0x2C2 JUMP JUMPDEST PUSH1 0x40 MLOAD PUSH2 0xCA SWAP2 SWAP1 PUSH2 0xE02 JUMP JUMPDEST PUSH1 0x40 MLOAD DUP1 SWAP2 SUB SWAP1 RETURN JUMPDEST PUSH2 0xED PUSH1 0x4 DUP1 CALLDATASIZE SUB DUP2 ADD SWAP1 PUSH2 0xE8 SWAP2 SWAP1 PUSH2 0x9E1 JUMP JUMPDEST PUSH2 0x639 JUMP JUMPDEST PUSH1 0x40 MLOAD PUSH2 0xFA SWAP2 SWAP1 PUSH2 0xA9E JUMP JUMPDEST PUSH1 0x40 MLOAD DUP1 SWAP2 SUB SWAP1 RETURN JUMPDEST PUSH2 0x10B PUSH2 0x6E5 JUMP JUMPDEST PUSH1 0x40 MLOAD PUSH2 0x118 SWAP2 SWAP1 PUSH2 0xBCC JUMP JUMPDEST PUSH1 0x40 MLOAD DUP1 SWAP2 SUB SWAP1 RETURN JUMPDEST PUSH2 0x13B PUSH1 0x4 DUP1 CALLDATASIZE SUB DUP2 ADD SWAP1 PUSH2 0x136 SWAP2 SWAP1 PUSH2 0xF59 JUMP JUMPDEST PUSH2 0x7BE JUMP JUMPDEST STOP JUMPDEST PUSH1 0x2 DUP2 DUP2 SLOAD DUP2 LT PUSH2 0x14D JUMPI PUSH1 0x0 DUP1 REVERT JUMPDEST SWAP1 PUSH1 0x0 MSTORE PUSH1 0x20 PUSH1 0x0 KECCAK256 ADD PUSH1 0x0 SWAP2 POP SWAP1 POP DUP1 SLOAD PUSH2 0x168 SWAP1 PUSH2 0x102F JUMP JUMPDEST DUP1 PUSH1 0x1F ADD PUSH1 0x20 DUP1 SWAP2 DIV MUL PUSH1 0x20 ADD PUSH1 0x40 MLOAD SWAP1 DUP2 ADD PUSH1 0x40 MSTORE DUP1 SWAP3 SWAP2 SWAP1 DUP2 DUP2 MSTORE PUSH1 0x20 ADD DUP3 DUP1 SLOAD PUSH2 0x194 SWAP1 PUSH2 0x102F JUMP JUMPDEST DUP1 ISZERO PUSH2 0x1E1 JUMPI DUP1 PUSH1 0x1F LT PUSH2 0x1B6 JUMPI PUSH2 0x100 DUP1 DUP4 SLOAD DIV MUL DUP4 MSTORE SWAP2 PUSH1 0x20 ADD SWAP2 PUSH2 0x1E1 JUMP JUMPDEST DUP3 ADD SWAP2 SWAP1 PUSH1 0x0 MSTORE PUSH1 0x20 PUSH1 0x0 KECCAK256 SWAP1 JUMPDEST DUP2 SLOAD DUP2 MSTORE SWAP1 PUSH1 0x1 ADD SWAP1 PUSH1 0x20 ADD DUP1 DUP4 GT PUSH2 0x1C4 JUMPI DUP3 SWAP1 SUB PUSH1 0x1F AND DUP3 ADD SWAP2 JUMPDEST POP POP POP POP POP DUP2 JUMP JUMPDEST PUSH1 0x60 PUSH1 0x0 DUP1 SLOAD DUP1 PUSH1 0x20 MUL PUSH1 0x20 ADD PUSH1 0x40 MLOAD SWAP1 DUP2 ADD PUSH1 0x40 MSTORE DUP1 SWAP3 SWAP2 SWAP1 DUP2 DUP2 MSTORE PUSH1 0x20 ADD PUSH1 0x0 SWAP1 JUMPDEST DUP3 DUP3 LT ISZERO PUSH2 0x2B9 JUMPI DUP4 DUP3 SWAP1 PUSH1 0x0 MSTORE PUSH1 0x20 PUSH1 0x0 KECCAK256 ADD DUP1 SLOAD PUSH2 0x22C SWAP1 PUSH2 0x102F JUMP JUMPDEST DUP1 PUSH1 0x1F ADD PUSH1 0x20 DUP1 SWAP2 DIV MUL PUSH1 0x20 ADD PUSH1 0x40 MLOAD SWAP1 DUP2 ADD PUSH1 0x40 MSTORE DUP1 SWAP3 SWAP2 SWAP1 DUP2 DUP2 MSTORE PUSH1 0x20 ADD DUP3 DUP1 SLOAD PUSH2 0x258 SWAP1 PUSH2 0x102F JUMP JUMPDEST DUP1 ISZERO PUSH2 0x2A5 JUMPI DUP1 PUSH1 0x1F LT PUSH2 0x27A JUMPI PUSH2 0x100 DUP1 DUP4 SLOAD DIV MUL DUP4 MSTORE SWAP2 PUSH1 0x20 ADD SWAP2 PUSH2 0x2A5 JUMP JUMPDEST DUP3 ADD SWAP2 SWAP1 PUSH1 0x0 MSTORE PUSH1 0x20 PUSH1 0x0 KECCAK256 SWAP1 JUMPDEST DUP2 SLOAD DUP2 MSTORE SWAP1 PUSH1 0x1 ADD SWAP1 PUSH1 0x20 ADD DUP1 DUP4 GT PUSH2 0x288 JUMPI DUP3 SWAP1 SUB PUSH1 0x1F AND DUP3 ADD SWAP2 JUMPDEST POP POP POP POP POP DUP2 MSTORE PUSH1 0x20 ADD SWAP1 PUSH1 0x1 ADD SWAP1 PUSH2 0x20D JUMP JUMPDEST POP POP POP POP SWAP1 POP SWAP1 JUMP JUMPDEST PUSH1 0x60 PUSH1 0x0 PUSH1 0x2 DUP1 SLOAD SWAP1 POP PUSH8 0xFFFFFFFFFFFFFFFF DUP2 GT ISZERO PUSH2 0x2E5 JUMPI PUSH2 0x2E4 PUSH2 0xE2E JUMP JUMPDEST JUMPDEST PUSH1 0x40 MLOAD SWAP1 DUP1 DUP3 MSTORE DUP1 PUSH1 0x20 MUL PUSH1 0x20 ADD DUP3 ADD PUSH1 0x40 MSTORE DUP1 ISZERO PUSH2 0x31E JUMPI DUP2 PUSH1 0x20 ADD JUMPDEST PUSH2 0x30B PUSH2 0x963 JUMP JUMPDEST DUP2 MSTORE PUSH1 0x20 ADD SWAP1 PUSH1 0x1 SWAP1 SUB SWAP1 DUP2 PUSH2 0x303 JUMPI SWAP1 POP JUMPDEST POP SWAP1 POP PUSH1 0x0 JUMPDEST PUSH1 0x2 DUP1 SLOAD SWAP1 POP DUP2 PUSH1 0xFF AND LT ISZERO PUSH2 0x631 JUMPI PUSH1 0x0 PUSH1 0x2 DUP3 PUSH1 0xFF AND DUP2 SLOAD DUP2 LT PUSH2 0x34D JUMPI PUSH2 0x34C PUSH2 0x1060 JUMP JUMPDEST JUMPDEST SWAP1 PUSH1 0x0 MSTORE PUSH1 0x20 PUSH1 0x0 KECCAK256 ADD DUP1 SLOAD PUSH2 0x362 SWAP1 PUSH2 0x102F JUMP JUMPDEST DUP1 PUSH1 0x1F ADD PUSH1 0x20 DUP1 SWAP2 DIV MUL PUSH1 0x20 ADD PUSH1 0x40 MLOAD SWAP1 DUP2 ADD PUSH1 0x40 MSTORE DUP1 SWAP3 SWAP2 SWAP1 DUP2 DUP2 MSTORE PUSH1 0x20 ADD DUP3 DUP1 SLOAD PUSH2 0x38E SWAP1 PUSH2 0x102F JUMP JUMPDEST DUP1 ISZERO PUSH2 0x3DB JUMPI DUP1 PUSH1 0x1F LT PUSH2 0x3B0 JUMPI PUSH2 0x100 DUP1 DUP4 SLOAD DIV MUL DUP4 MSTORE SWAP2 PUSH1 0x20 ADD SWAP2 PUSH2 0x3DB JUMP JUMPDEST DUP3 ADD SWAP2 SWAP1 PUSH1 0x0 MSTORE PUSH1 0x20 PUSH1 0x0 KECCAK256 SWAP1 JUMPDEST DUP2 SLOAD DUP2 MSTORE SWAP1 PUSH1 0x1 ADD SWAP1 PUSH1 0x20 ADD DUP1 DUP4 GT PUSH2 0x3BE JUMPI DUP3 SWAP1 SUB PUSH1 0x1F AND DUP3 ADD SWAP2 JUMPDEST POP POP POP POP POP SWAP1 POP DUP1 DUP4 DUP4 PUSH1 0xFF AND DUP2 MLOAD DUP2 LT PUSH2 0x3F9 JUMPI PUSH2 0x3F8 PUSH2 0x1060 JUMP JUMPDEST JUMPDEST PUSH1 0x20 MUL PUSH1 0x20 ADD ADD MLOAD PUSH1 0x0 ADD DUP2 SWAP1 MSTORE POP PUSH1 0x0 DUP1 SLOAD SWAP1 POP PUSH8 0xFFFFFFFFFFFFFFFF DUP2 GT ISZERO PUSH2 0x427 JUMPI PUSH2 0x426 PUSH2 0xE2E JUMP JUMPDEST JUMPDEST PUSH1 0x40 MLOAD SWAP1 DUP1 DUP3 MSTORE DUP1 PUSH1 0x20 MUL PUSH1 0x20 ADD DUP3 ADD PUSH1 0x40 MSTORE DUP1 ISZERO PUSH2 0x460 JUMPI DUP2 PUSH1 0x20 ADD JUMPDEST PUSH2 0x44D PUSH2 0x97D JUMP JUMPDEST DUP2 MSTORE PUSH1 0x20 ADD SWAP1 PUSH1 0x1 SWAP1 SUB SWAP1 DUP2 PUSH2 0x445 JUMPI SWAP1 POP JUMPDEST POP DUP4 DUP4 PUSH1 0xFF AND DUP2 MLOAD DUP2 LT PUSH2 0x477 JUMPI PUSH2 0x476 PUSH2 0x1060 JUMP JUMPDEST JUMPDEST PUSH1 0x20 MUL PUSH1 0x20 ADD ADD MLOAD PUSH1 0x20 ADD DUP2 SWAP1 MSTORE POP PUSH1 0x0 JUMPDEST PUSH1 0x0 DUP1 SLOAD SWAP1 POP DUP2 PUSH1 0xFF AND LT ISZERO PUSH2 0x61C JUMPI PUSH1 0x0 DUP2 PUSH1 0xFF AND DUP2 SLOAD DUP2 LT PUSH2 0x4B0 JUMPI PUSH2 0x4AF PUSH2 0x1060 JUMP JUMPDEST JUMPDEST SWAP1 PUSH1 0x0 MSTORE PUSH1 0x20 PUSH1 0x0 KECCAK256 ADD DUP1 SLOAD PUSH2 0x4C5 SWAP1 PUSH2 0x102F JUMP JUMPDEST DUP1 PUSH1 0x1F ADD PUSH1 0x20 DUP1 SWAP2 DIV MUL PUSH1 0x20 ADD PUSH1 0x40 MLOAD SWAP1 DUP2 ADD PUSH1 0x40 MSTORE DUP1 SWAP3 SWAP2 SWAP1 DUP2 DUP2 MSTORE PUSH1 0x20 ADD DUP3 DUP1 SLOAD PUSH2 0x4F1 SWAP1 PUSH2 0x102F JUMP JUMPDEST DUP1 ISZERO PUSH2 0x53E JUMPI DUP1 PUSH1 0x1F LT PUSH2 0x513 JUMPI PUSH2 0x100 DUP1 DUP4 SLOAD DIV MUL DUP4 MSTORE SWAP2 PUSH1 0x20 ADD SWAP2 PUSH2 0x53E JUMP JUMPDEST DUP3 ADD SWAP2 SWAP1 PUSH1 0x0 MSTORE PUSH1 0x20 PUSH1 0x0 KECCAK256 SWAP1 JUMPDEST DUP2 SLOAD DUP2 MSTORE SWAP1 PUSH1 0x1 ADD SWAP1 PUSH1 0x20 ADD DUP1 DUP4 GT PUSH2 0x521 JUMPI DUP3 SWAP1 SUB PUSH1 0x1F AND DUP3 ADD SWAP2 JUMPDEST POP POP POP POP POP DUP5 DUP5 PUSH1 0xFF AND DUP2 MLOAD DUP2 LT PUSH2 0x559 JUMPI PUSH2 0x558 PUSH2 0x1060 JUMP JUMPDEST JUMPDEST PUSH1 0x20 MUL PUSH1 0x20 ADD ADD MLOAD PUSH1 0x20 ADD MLOAD DUP3 PUSH1 0xFF AND DUP2 MLOAD DUP2 LT PUSH2 0x57A JUMPI PUSH2 0x579 PUSH2 0x1060 JUMP JUMPDEST JUMPDEST PUSH1 0x20 MUL PUSH1 0x20 ADD ADD MLOAD PUSH1 0x0 ADD DUP2 SWAP1 MSTORE POP PUSH1 0x3 DUP3 PUSH1 0x40 MLOAD PUSH2 0x599 SWAP2 SWAP1 PUSH2 0x10CB JUMP JUMPDEST SWAP1 DUP2 MSTORE PUSH1 0x20 ADD PUSH1 0x40 MLOAD DUP1 SWAP2 SUB SWAP1 KECCAK256 PUSH1 0x0 ADD PUSH1 0x0 DUP3 PUSH1 0xFF AND PUSH1 0xFF AND DUP2 MSTORE PUSH1 0x20 ADD SWAP1 DUP2 MSTORE PUSH1 0x20 ADD PUSH1 0x0 KECCAK256 SLOAD DUP5 DUP5 PUSH1 0xFF AND DUP2 MLOAD DUP2 LT PUSH2 0x5D8 JUMPI PUSH2 0x5D7 PUSH2 0x1060 JUMP JUMPDEST JUMPDEST PUSH1 0x20 MUL PUSH1 0x20 ADD ADD MLOAD PUSH1 0x20 ADD MLOAD DUP3 PUSH1 0xFF AND DUP2 MLOAD DUP2 LT PUSH2 0x5F9 JUMPI PUSH2 0x5F8 PUSH2 0x1060 JUMP JUMPDEST JUMPDEST PUSH1 0x20 MUL PUSH1 0x20 ADD ADD MLOAD PUSH1 0x20 ADD DUP2 DUP2 MSTORE POP POP DUP1 DUP1 PUSH2 0x614 SWAP1 PUSH2 0x111E JUMP JUMPDEST SWAP2 POP POP PUSH2 0x489 JUMP JUMPDEST POP POP DUP1 DUP1 PUSH2 0x629 SWAP1 PUSH2 0x111E JUMP JUMPDEST SWAP2 POP POP PUSH2 0x324 JUMP JUMPDEST POP DUP1 SWAP2 POP POP SWAP1 JUMP JUMPDEST PUSH1 0x0 DUP2 DUP2 SLOAD DUP2 LT PUSH2 0x649 JUMPI PUSH1 0x0 DUP1 REVERT JUMPDEST SWAP1 PUSH1 0x0 MSTORE PUSH1 0x20 PUSH1 0x0 KECCAK256 ADD PUSH1 0x0 SWAP2 POP SWAP1 POP DUP1 SLOAD PUSH2 0x664 SWAP1 PUSH2 0x102F JUMP JUMPDEST DUP1 PUSH1 0x1F ADD PUSH1 0x20 DUP1 SWAP2 DIV MUL PUSH1 0x20 ADD PUSH1 0x40 MLOAD SWAP1 DUP2 ADD PUSH1 0x40 MSTORE DUP1 SWAP3 SWAP2 SWAP1 DUP2 DUP2 MSTORE PUSH1 0x20 ADD DUP3 DUP1 SLOAD PUSH2 0x690 SWAP1 PUSH2 0x102F JUMP JUMPDEST DUP1 ISZERO PUSH2 0x6DD JUMPI DUP1 PUSH1 0x1F LT PUSH2 0x6B2 JUMPI PUSH2 0x100 DUP1 DUP4 SLOAD DIV MUL DUP4 MSTORE SWAP2 PUSH1 0x20 ADD SWAP2 PUSH2 0x6DD JUMP JUMPDEST DUP3 ADD SWAP2 SWAP1 PUSH1 0x0 MSTORE PUSH1 0x20 PUSH1 0x0 KECCAK256 SWAP1 JUMPDEST DUP2 SLOAD DUP2 MSTORE SWAP1 PUSH1 0x1 ADD SWAP1 PUSH1 0x20 ADD DUP1 DUP4 GT PUSH2 0x6C0 JUMPI DUP3 SWAP1 SUB PUSH1 0x1F AND DUP3 ADD SWAP2 JUMPDEST POP POP POP POP POP DUP2 JUMP JUMPDEST PUSH1 0x60 PUSH1 0x2 DUP1 SLOAD DUP1 PUSH1 0x20 MUL PUSH1 0x20 ADD PUSH1 0x40 MLOAD SWAP1 DUP2 ADD PUSH1 0x40 MSTORE DUP1 SWAP3 SWAP2 SWAP1 DUP2 DUP2 MSTORE PUSH1 0x20 ADD PUSH1 0x0 SWAP1 JUMPDEST DUP3 DUP3 LT ISZERO PUSH2 0x7B5 JUMPI DUP4 DUP3 SWAP1 PUSH1 0x0 MSTORE PUSH1 0x20 PUSH1 0x0 KECCAK256 ADD DUP1 SLOAD PUSH2 0x728 SWAP1 PUSH2 0x102F JUMP JUMPDEST DUP1 PUSH1 0x1F ADD PUSH1 0x20 DUP1 SWAP2 DIV MUL PUSH1 0x20 ADD PUSH1 0x40 MLOAD SWAP1 DUP2 ADD PUSH1 0x40 MSTORE DUP1 SWAP3 SWAP2 SWAP1 DUP2 DUP2 MSTORE PUSH1 0x20 ADD DUP3 DUP1 SLOAD PUSH2 0x754 SWAP1 PUSH2 0x102F JUMP JUMPDEST DUP1 ISZERO PUSH2 0x7A1 JUMPI DUP1 PUSH1 0x1F LT PUSH2 0x776 JUMPI PUSH2 0x100 DUP1 DUP4 SLOAD DIV MUL DUP4 MSTORE SWAP2 PUSH1 0x20 ADD SWAP2 PUSH2 0x7A1 JUMP JUMPDEST DUP3 ADD SWAP2 SWAP1 PUSH1 0x0 MSTORE PUSH1 0x20 PUSH1 0x0 KECCAK256 SWAP1 JUMPDEST DUP2 SLOAD DUP2 MSTORE SWAP1 PUSH1 0x1 ADD SWAP1 PUSH1 0x20 ADD DUP1 DUP4 GT PUSH2 0x784 JUMPI DUP3 SWAP1 SUB PUSH1 0x1F AND DUP3 ADD SWAP2 JUMPDEST POP POP POP POP POP DUP2 MSTORE PUSH1 0x20 ADD SWAP1 PUSH1 0x1 ADD SWAP1 PUSH2 0x709 JUMP JUMPDEST POP POP POP POP SWAP1 POP SWAP1 JUMP JUMPDEST PUSH1 0x4 DUP4 PUSH1 0x40 MLOAD PUSH2 0x7CE SWAP2 SWAP1 PUSH2 0x10CB JUMP JUMPDEST SWAP1 DUP2 MSTORE PUSH1 0x20 ADD PUSH1 0x40 MLOAD DUP1 SWAP2 SUB SWAP1 KECCAK256 PUSH1 0x0 SWAP1 SLOAD SWAP1 PUSH2 0x100 EXP SWAP1 DIV PUSH1 0xFF AND ISZERO PUSH2 0x82A JUMPI PUSH1 0x40 MLOAD PUSH32 0x8C379A000000000000000000000000000000000000000000000000000000000 DUP2 MSTORE PUSH1 0x4 ADD PUSH2 0x821 SWAP1 PUSH2 0x1193 JUMP JUMPDEST PUSH1 0x40 MLOAD DUP1 SWAP2 SUB SWAP1 REVERT JUMPDEST PUSH1 0x0 PUSH1 0x1 DUP4 PUSH1 0x40 MLOAD PUSH2 0x83C SWAP2 SWAP1 PUSH2 0x10CB JUMP JUMPDEST SWAP1 DUP2 MSTORE PUSH1 0x20 ADD PUSH1 0x40 MLOAD DUP1 SWAP2 SUB SWAP1 KECCAK256 PUSH1 0x0 SWAP1 SLOAD SWAP1 PUSH2 0x100 EXP SWAP1 DIV PUSH1 0xFF AND PUSH1 0xFF AND GT PUSH2 0x89B JUMPI PUSH1 0x40 MLOAD PUSH32 0x8C379A000000000000000000000000000000000000000000000000000000000 DUP2 MSTORE PUSH1 0x4 ADD PUSH2 0x892 SWAP1 PUSH2 0x11FF JUMP JUMPDEST PUSH1 0x40 MLOAD DUP1 SWAP2 SUB SWAP1 REVERT JUMPDEST PUSH1 0x0 PUSH1 0x1 DUP1 DUP5 PUSH1 0x40 MLOAD PUSH2 0x8AE SWAP2 SWAP1 PUSH2 0x10CB JUMP JUMPDEST SWAP1 DUP2 MSTORE PUSH1 0x20 ADD PUSH1 0x40 MLOAD DUP1 SWAP2 SUB SWAP1 KECCAK256 PUSH1 0x0 SWAP1 SLOAD SWAP1 PUSH2 0x100 EXP SWAP1 DIV PUSH1 0xFF AND PUSH2 0x8D4 SWAP2 SWAP1 PUSH2 0x121F JUMP JUMPDEST SWAP1 POP PUSH1 0x1 PUSH1 0x4 DUP6 PUSH1 0x40 MLOAD PUSH2 0x8E8 SWAP2 SWAP1 PUSH2 0x10CB JUMP JUMPDEST SWAP1 DUP2 MSTORE PUSH1 0x20 ADD PUSH1 0x40 MLOAD DUP1 SWAP2 SUB SWAP1 KECCAK256 PUSH1 0x0 PUSH2 0x100 EXP DUP2 SLOAD DUP2 PUSH1 0xFF MUL NOT AND SWAP1 DUP4 ISZERO ISZERO MUL OR SWAP1 SSTORE POP PUSH1 0x1 PUSH1 0x3 DUP4 PUSH1 0x40 MLOAD PUSH2 0x91F SWAP2 SWAP1 PUSH2 0x10CB JUMP JUMPDEST SWAP1 DUP2 MSTORE PUSH1 0x20 ADD PUSH1 0x40 MLOAD DUP1 SWAP2 SUB SWAP1 KECCAK256 PUSH1 0x0 ADD PUSH1 0x0 DUP4 PUSH1 0xFF AND PUSH1 0xFF AND DUP2 MSTORE PUSH1 0x20 ADD SWAP1 DUP2 MSTORE PUSH1 0x20 ADD PUSH1 0x0 KECCAK256 PUSH1 0x0 DUP3 DUP3 SLOAD PUSH2 0x956 SWAP2 SWAP1 PUSH2 0x1254 JUMP JUMPDEST SWAP3 POP POP DUP2 SWAP1 SSTORE POP POP POP POP POP JUMP JUMPDEST PUSH1 0x40 MLOAD DUP1 PUSH1 0x40 ADD PUSH1 0x40 MSTORE DUP1 PUSH1 0x60 DUP2 MSTORE PUSH1 0x20 ADD PUSH1 0x60 DUP2 MSTORE POP SWAP1 JUMP JUMPDEST PUSH1 0x40 MLOAD DUP1 PUSH1 0x40 ADD PUSH1 0x40 MSTORE DUP1 PUSH1 0x60 DUP2 MSTORE PUSH1 0x20 ADD PUSH1 0x0 DUP2 MSTORE POP SWAP1 JUMP JUMPDEST PUSH1 0x0 PUSH1 0x40 MLOAD SWAP1 POP SWAP1 JUMP JUMPDEST PUSH1 0x0 DUP1 REVERT JUMPDEST PUSH1 0x0 DUP1 REVERT JUMPDEST PUSH1 0x0 DUP2 SWAP1 POP SWAP2 SWAP1 POP JUMP JUMPDEST PUSH2 0x9BE DUP2 PUSH2 0x9AB JUMP JUMPDEST DUP2 EQ PUSH2 0x9C9 JUMPI PUSH1 0x0 DUP1 REVERT JUMPDEST POP JUMP JUMPDEST PUSH1 0x0 DUP2 CALLDATALOAD SWAP1 POP PUSH2 0x9DB DUP2 PUSH2 0x9B5 JUMP JUMPDEST SWAP3 SWAP2 POP POP JUMP JUMPDEST PUSH1 0x0 PUSH1 0x20 DUP3 DUP5 SUB SLT ISZERO PUSH2 0x9F7 JUMPI PUSH2 0x9F6 PUSH2 0x9A1 JUMP JUMPDEST JUMPDEST PUSH1 0x0 PUSH2 0xA05 DUP5 DUP3 DUP6 ADD PUSH2 0x9CC JUMP JUMPDEST SWAP2 POP POP SWAP3 SWAP2 POP POP JUMP JUMPDEST PUSH1 0x0 DUP2 MLOAD SWAP1 POP SWAP2 SWAP1 POP JUMP JUMPDEST PUSH1 0x0 DUP3 DUP3 MSTORE PUSH1 0x20 DUP3 ADD SWAP1 POP SWAP3 SWAP2 POP POP JUMP JUMPDEST PUSH1 0x0 JUMPDEST DUP4 DUP2 LT ISZERO PUSH2 0xA48 JUMPI DUP1 DUP3 ADD MLOAD DUP2 DUP5 ADD MSTORE PUSH1 0x20 DUP2 ADD SWAP1 POP PUSH2 0xA2D JUMP JUMPDEST PUSH1 0x0 DUP5 DUP5 ADD MSTORE POP POP POP POP JUMP JUMPDEST PUSH1 0x0 PUSH1 0x1F NOT PUSH1 0x1F DUP4 ADD AND SWAP1 POP SWAP2 SWAP1 POP JUMP JUMPDEST PUSH1 0x0 PUSH2 0xA70 DUP3 PUSH2 0xA0E JUMP JUMPDEST PUSH2 0xA7A DUP2 DUP6 PUSH2 0xA19 JUMP JUMPDEST SWAP4 POP PUSH2 0xA8A DUP2 DUP6 PUSH1 0x20 DUP7 ADD PUSH2 0xA2A JUMP JUMPDEST PUSH2 0xA93 DUP2 PUSH2 0xA54 JUMP JUMPDEST DUP5 ADD SWAP2 POP POP SWAP3 SWAP2 POP POP JUMP JUMPDEST PUSH1 0x0 PUSH1 0x20 DUP3 ADD SWAP1 POP DUP2 DUP2 SUB PUSH1 0x0 DUP4 ADD MSTORE PUSH2 0xAB8 DUP2 DUP5 PUSH2 0xA65 JUMP JUMPDEST SWAP1 POP SWAP3 SWAP2 POP POP JUMP JUMPDEST PUSH1 0x0 DUP2 MLOAD SWAP1 POP SWAP2 SWAP1 POP JUMP JUMPDEST PUSH1 0x0 DUP3 DUP3 MSTORE PUSH1 0x20 DUP3 ADD SWAP1 POP SWAP3 SWAP2 POP POP JUMP JUMPDEST PUSH1 0x0 DUP2 SWAP1 POP PUSH1 0x20 DUP3 ADD SWAP1 POP SWAP2 SWAP1 POP JUMP JUMPDEST PUSH1 0x0 DUP3 DUP3 MSTORE PUSH1 0x20 DUP3 ADD SWAP1 POP SWAP3 SWAP2 POP POP JUMP JUMPDEST PUSH1 0x0 PUSH2 0xB08 DUP3 PUSH2 0xA0E JUMP JUMPDEST PUSH2 0xB12 DUP2 DUP6 PUSH2 0xAEC JUMP JUMPDEST SWAP4 POP PUSH2 0xB22 DUP2 DUP6 PUSH1 0x20 DUP7 ADD PUSH2 0xA2A JUMP JUMPDEST PUSH2 0xB2B DUP2 PUSH2 0xA54 JUMP JUMPDEST DUP5 ADD SWAP2 POP POP SWAP3 SWAP2 POP POP JUMP JUMPDEST PUSH1 0x0 PUSH2 0xB42 DUP4 DUP4 PUSH2 0xAFD JUMP JUMPDEST SWAP1 POP SWAP3 SWAP2 POP POP JUMP JUMPDEST PUSH1 0x0 PUSH1 0x20 DUP3 ADD SWAP1 POP SWAP2 SWAP1 POP JUMP JUMPDEST PUSH1 0x0 PUSH2 0xB62 DUP3 PUSH2 0xAC0 JUMP JUMPDEST PUSH2 0xB6C DUP2 DUP6 PUSH2 0xACB JUMP JUMPDEST SWAP4 POP DUP4 PUSH1 0x20 DUP3 MUL DUP6 ADD PUSH2 0xB7E DUP6 PUSH2 0xADC JUMP JUMPDEST DUP1 PUSH1 0x0 JUMPDEST DUP6 DUP2 LT ISZERO PUSH2 0xBBA JUMPI DUP5 DUP5 SUB DUP10 MSTORE DUP2 MLOAD PUSH2 0xB9B DUP6 DUP3 PUSH2 0xB36 JUMP JUMPDEST SWAP5 POP PUSH2 0xBA6 DUP4 PUSH2 0xB4A JUMP JUMPDEST SWAP3 POP PUSH1 0x20 DUP11 ADD SWAP10 POP POP PUSH1 0x1 DUP2 ADD SWAP1 POP PUSH2 0xB82 JUMP JUMPDEST POP DUP3 SWAP8 POP DUP8 SWAP6 POP POP POP POP POP POP SWAP3 SWAP2 POP POP JUMP JUMPDEST PUSH1 0x0 PUSH1 0x20 DUP3 ADD SWAP1 POP DUP2 DUP2 SUB PUSH1 0x0 DUP4 ADD MSTORE PUSH2 0xBE6 DUP2 DUP5 PUSH2 0xB57 JUMP JUMPDEST SWAP1 POP SWAP3 SWAP2 POP POP JUMP JUMPDEST PUSH1 0x0 DUP2 MLOAD SWAP1 POP SWAP2 SWAP1 POP JUMP JUMPDEST PUSH1 0x0 DUP3 DUP3 MSTORE PUSH1 0x20 DUP3 ADD SWAP1 POP SWAP3 SWAP2 POP POP JUMP JUMPDEST PUSH1 0x0 DUP2 SWAP1 POP PUSH1 0x20 DUP3 ADD SWAP1 POP SWAP2 SWAP1 POP JUMP JUMPDEST PUSH1 0x0 DUP2 MLOAD SWAP1 POP SWAP2 SWAP1 POP JUMP JUMPDEST PUSH1 0x0 DUP3 DUP3 MSTORE PUSH1 0x20 DUP3 ADD SWAP1 POP SWAP3 SWAP2 POP POP JUMP JUMPDEST PUSH1 0x0 DUP2 SWAP1 POP PUSH1 0x20 DUP3 ADD SWAP1 POP SWAP2 SWAP1 POP JUMP JUMPDEST PUSH2 0xC4F DUP2 PUSH2 0x9AB JUMP JUMPDEST DUP3 MSTORE POP POP JUMP JUMPDEST PUSH1 0x0 PUSH1 0x40 DUP4 ADD PUSH1 0x0 DUP4 ADD MLOAD DUP5 DUP3 SUB PUSH1 0x0 DUP7 ADD MSTORE PUSH2 0xC72 DUP3 DUP3 PUSH2 0xAFD JUMP JUMPDEST SWAP2 POP POP PUSH1 0x20 DUP4 ADD MLOAD PUSH2 0xC87 PUSH1 0x20 DUP7 ADD DUP3 PUSH2 0xC46 JUMP JUMPDEST POP DUP1 SWAP2 POP POP SWAP3 SWAP2 POP POP JUMP JUMPDEST PUSH1 0x0 PUSH2 0xC9E DUP4 DUP4 PUSH2 0xC55 JUMP JUMPDEST SWAP1 POP SWAP3 SWAP2 POP POP JUMP JUMPDEST PUSH1 0x0 PUSH1 0x20 DUP3 ADD SWAP1 POP SWAP2 SWAP1 POP JUMP JUMPDEST PUSH1 0x0 PUSH2 0xCBE DUP3 PUSH2 0xC1A JUMP JUMPDEST PUSH2 0xCC8 DUP2 DUP6 PUSH2 0xC25 JUMP JUMPDEST SWAP4 POP DUP4 PUSH1 0x20 DUP3 MUL DUP6 ADD PUSH2 0xCDA DUP6 PUSH2 0xC36 JUMP JUMPDEST DUP1 PUSH1 0x0 JUMPDEST DUP6 DUP2 LT ISZERO PUSH2 0xD16 JUMPI DUP5 DUP5 SUB DUP10 MSTORE DUP2 MLOAD PUSH2 0xCF7 DUP6 DUP3 PUSH2 0xC92 JUMP JUMPDEST SWAP5 POP PUSH2 0xD02 DUP4 PUSH2 0xCA6 JUMP JUMPDEST SWAP3 POP PUSH1 0x20 DUP11 ADD SWAP10 POP POP PUSH1 0x1 DUP2 ADD SWAP1 POP PUSH2 0xCDE JUMP JUMPDEST POP DUP3 SWAP8 POP DUP8 SWAP6 POP POP POP POP POP POP SWAP3 SWAP2 POP POP JUMP JUMPDEST PUSH1 0x0 PUSH1 0x40 DUP4 ADD PUSH1 0x0 DUP4 ADD MLOAD DUP5 DUP3 SUB PUSH1 0x0 DUP7 ADD MSTORE PUSH2 0xD45 DUP3 DUP3 PUSH2 0xAFD JUMP JUMPDEST SWAP2 POP POP PUSH1 0x20 DUP4 ADD MLOAD DUP5 DUP3 SUB PUSH1 0x20 DUP7 ADD MSTORE PUSH2 0xD5F DUP3 DUP3 PUSH2 0xCB3 JUMP JUMPDEST SWAP2 POP POP DUP1 SWAP2 POP POP SWAP3 SWAP2 POP POP JUMP JUMPDEST PUSH1 0x0 PUSH2 0xD78 DUP4 DUP4 PUSH2 0xD28 JUMP JUMPDEST SWAP1 POP SWAP3 SWAP2 POP POP JUMP JUMPDEST PUSH1 0x0 PUSH1 0x20 DUP3 ADD SWAP1 POP SWAP2 SWAP1 POP JUMP JUMPDEST PUSH1 0x0 PUSH2 0xD98 DUP3 PUSH2 0xBEE JUMP JUMPDEST PUSH2 0xDA2 DUP2 DUP6 PUSH2 0xBF9 JUMP JUMPDEST SWAP4 POP DUP4 PUSH1 0x20 DUP3 MUL DUP6 ADD PUSH2 0xDB4 DUP6 PUSH2 0xC0A JUMP JUMPDEST DUP1 PUSH1 0x0 JUMPDEST DUP6 DUP2 LT ISZERO PUSH2 0xDF0 JUMPI DUP5 DUP5 SUB DUP10 MSTORE DUP2 MLOAD PUSH2 0xDD1 DUP6 DUP3 PUSH2 0xD6C JUMP JUMPDEST SWAP5 POP PUSH2 0xDDC DUP4 PUSH2 0xD80 JUMP JUMPDEST SWAP3 POP PUSH1 0x20 DUP11 ADD SWAP10 POP POP PUSH1 0x1 DUP2 ADD SWAP1 POP PUSH2 0xDB8 JUMP JUMPDEST POP DUP3 SWAP8 POP DUP8 SWAP6 POP POP POP POP POP POP SWAP3 SWAP2 POP POP JUMP JUMPDEST PUSH1 0x0 PUSH1 0x20 DUP3 ADD SWAP1 POP DUP2 DUP2 SUB PUSH1 0x0 DUP4 ADD MSTORE PUSH2 0xE1C DUP2 DUP5 PUSH2 0xD8D JUMP JUMPDEST SWAP1 POP SWAP3 SWAP2 POP POP JUMP JUMPDEST PUSH1 0x0 DUP1 REVERT JUMPDEST PUSH1 0x0 DUP1 REVERT JUMPDEST PUSH32 0x4E487B7100000000000000000000000000000000000000000000000000000000 PUSH1 0x0 MSTORE PUSH1 0x41 PUSH1 0x4 MSTORE PUSH1 0x24 PUSH1 0x0 REVERT JUMPDEST PUSH2 0xE66 DUP3 PUSH2 0xA54 JUMP JUMPDEST DUP2 ADD DUP2 DUP2 LT PUSH8 0xFFFFFFFFFFFFFFFF DUP3 GT OR ISZERO PUSH2 0xE85 JUMPI PUSH2 0xE84 PUSH2 0xE2E JUMP JUMPDEST JUMPDEST DUP1 PUSH1 0x40 MSTORE POP POP POP JUMP JUMPDEST PUSH1 0x0 PUSH2 0xE98 PUSH2 0x997 JUMP JUMPDEST SWAP1 POP PUSH2 0xEA4 DUP3 DUP3 PUSH2 0xE5D JUMP JUMPDEST SWAP2 SWAP1 POP JUMP JUMPDEST PUSH1 0x0 PUSH8 0xFFFFFFFFFFFFFFFF DUP3 GT ISZERO PUSH2 0xEC4 JUMPI PUSH2 0xEC3 PUSH2 0xE2E JUMP JUMPDEST JUMPDEST PUSH2 0xECD DUP3 PUSH2 0xA54 JUMP JUMPDEST SWAP1 POP PUSH1 0x20 DUP2 ADD SWAP1 POP SWAP2 SWAP1 POP JUMP JUMPDEST DUP3 DUP2 DUP4 CALLDATACOPY PUSH1 0x0 DUP4 DUP4 ADD MSTORE POP POP POP JUMP JUMPDEST PUSH1 0x0 PUSH2 0xEFC PUSH2 0xEF7 DUP5 PUSH2 0xEA9 JUMP JUMPDEST PUSH2 0xE8E JUMP JUMPDEST SWAP1 POP DUP3 DUP2 MSTORE PUSH1 0x20 DUP2 ADD DUP5 DUP5 DUP5 ADD GT ISZERO PUSH2 0xF18 JUMPI PUSH2 0xF17 PUSH2 0xE29 JUMP JUMPDEST JUMPDEST PUSH2 0xF23 DUP5 DUP3 DUP6 PUSH2 0xEDA JUMP JUMPDEST POP SWAP4 SWAP3 POP POP POP JUMP JUMPDEST PUSH1 0x0 DUP3 PUSH1 0x1F DUP4 ADD SLT PUSH2 0xF40 JUMPI PUSH2 0xF3F PUSH2 0xE24 JUMP JUMPDEST JUMPDEST DUP2 CALLDATALOAD PUSH2 0xF50 DUP5 DUP3 PUSH1 0x20 DUP7 ADD PUSH2 0xEE9 JUMP JUMPDEST SWAP2 POP POP SWAP3 SWAP2 POP POP JUMP JUMPDEST PUSH1 0x0 DUP1 PUSH1 0x0 PUSH1 0x60 DUP5 DUP7 SUB SLT ISZERO PUSH2 0xF72 JUMPI PUSH2 0xF71 PUSH2 0x9A1 JUMP JUMPDEST JUMPDEST PUSH1 0x0 DUP5 ADD CALLDATALOAD PUSH8 0xFFFFFFFFFFFFFFFF DUP2 GT ISZERO PUSH2 0xF90 JUMPI PUSH2 0xF8F PUSH2 0x9A6 JUMP JUMPDEST JUMPDEST PUSH2 0xF9C DUP7 DUP3 DUP8 ADD PUSH2 0xF2B JUMP JUMPDEST SWAP4 POP POP PUSH1 0x20 DUP5 ADD CALLDATALOAD PUSH8 0xFFFFFFFFFFFFFFFF DUP2 GT ISZERO PUSH2 0xFBD JUMPI PUSH2 0xFBC PUSH2 0x9A6 JUMP JUMPDEST JUMPDEST PUSH2 0xFC9 DUP7 DUP3 DUP8 ADD PUSH2 0xF2B JUMP JUMPDEST SWAP3 POP POP PUSH1 0x40 DUP5 ADD CALLDATALOAD PUSH8 0xFFFFFFFFFFFFFFFF DUP2 GT ISZERO PUSH2 0xFEA JUMPI PUSH2 0xFE9 PUSH2 0x9A6 JUMP JUMPDEST JUMPDEST PUSH2 0xFF6 DUP7 DUP3 DUP8 ADD PUSH2 0xF2B JUMP JUMPDEST SWAP2 POP POP SWAP3 POP SWAP3 POP SWAP3 JUMP JUMPDEST PUSH32 0x4E487B7100000000000000000000000000000000000000000000000000000000 PUSH1 0x0 MSTORE PUSH1 0x22 PUSH1 0x4 MSTORE PUSH1 0x24 PUSH1 0x0 REVERT JUMPDEST PUSH1 0x0 PUSH1 0x2 DUP3 DIV SWAP1 POP PUSH1 0x1 DUP3 AND DUP1 PUSH2 0x1047 JUMPI PUSH1 0x7F DUP3 AND SWAP2 POP JUMPDEST PUSH1 0x20 DUP3 LT DUP2 SUB PUSH2 0x105A JUMPI PUSH2 0x1059 PUSH2 0x1000 JUMP JUMPDEST JUMPDEST POP SWAP2 SWAP1 POP JUMP JUMPDEST PUSH32 0x4E487B7100000000000000000000000000000000000000000000000000000000 PUSH1 0x0 MSTORE PUSH1 0x32 PUSH1 0x4 MSTORE PUSH1 0x24 PUSH1 0x0 REVERT JUMPDEST PUSH1 0x0 DUP2 SWAP1 POP SWAP3 SWAP2 POP POP JUMP JUMPDEST PUSH1 0x0 PUSH2 0x10A5 DUP3 PUSH2 0xA0E JUMP JUMPDEST PUSH2 0x10AF DUP2 DUP6 PUSH2 0x108F JUMP JUMPDEST SWAP4 POP PUSH2 0x10BF DUP2 DUP6 PUSH1 0x20 DUP7 ADD PUSH2 0xA2A JUMP JUMPDEST DUP1 DUP5 ADD SWAP2 POP POP SWAP3 SWAP2 POP POP JUMP JUMPDEST PUSH1 0x0 PUSH2 0x10D7 DUP3 DUP5 PUSH2 0x109A JUMP JUMPDEST SWAP2 POP DUP2 SWAP1 POP SWAP3 SWAP2 POP POP JUMP JUMPDEST PUSH32 0x4E487B7100000000000000000000000000000000000000000000000000000000 PUSH1 0x0 MSTORE PUSH1 0x11 PUSH1 0x4 MSTORE PUSH1 0x24 PUSH1 0x0 REVERT JUMPDEST PUSH1 0x0 PUSH1 0xFF DUP3 AND SWAP1 POP SWAP2 SWAP1 POP JUMP JUMPDEST PUSH1 0x0 PUSH2 0x1129 DUP3 PUSH2 0x1111 JUMP JUMPDEST SWAP2 POP PUSH1 0xFF DUP3 SUB PUSH2 0x113C JUMPI PUSH2 0x113B PUSH2 0x10E2 JUMP JUMPDEST JUMPDEST PUSH1 0x1 DUP3 ADD SWAP1 POP SWAP2 SWAP1 POP JUMP JUMPDEST PUSH32 0x596F75206861766520616C726561647920766F7465642E000000000000000000 PUSH1 0x0 DUP3 ADD MSTORE POP JUMP JUMPDEST PUSH1 0x0 PUSH2 0x117D PUSH1 0x17 DUP4 PUSH2 0xA19 JUMP JUMPDEST SWAP2 POP PUSH2 0x1188 DUP3 PUSH2 0x1147 JUMP JUMPDEST PUSH1 0x20 DUP3 ADD SWAP1 POP SWAP2 SWAP1 POP JUMP JUMPDEST PUSH1 0x0 PUSH1 0x20 DUP3 ADD SWAP1 POP DUP2 DUP2 SUB PUSH1 0x0 DUP4 ADD MSTORE PUSH2 0x11AC DUP2 PUSH2 0x1170 JUMP JUMPDEST SWAP1 POP SWAP2 SWAP1 POP JUMP JUMPDEST PUSH32 0x496E76616C69642063616E646964617465206E616D652E000000000000000000 PUSH1 0x0 DUP3 ADD MSTORE POP JUMP JUMPDEST PUSH1 0x0 PUSH2 0x11E9 PUSH1 0x17 DUP4 PUSH2 0xA19 JUMP JUMPDEST SWAP2 POP PUSH2 0x11F4 DUP3 PUSH2 0x11B3 JUMP JUMPDEST PUSH1 0x20 DUP3 ADD SWAP1 POP SWAP2 SWAP1 POP JUMP JUMPDEST PUSH1 0x0 PUSH1 0x20 DUP3 ADD SWAP1 POP DUP2 DUP2 SUB PUSH1 0x0 DUP4 ADD MSTORE PUSH2 0x1218 DUP2 PUSH2 0x11DC JUMP JUMPDEST SWAP1 POP SWAP2 SWAP1 POP JUMP JUMPDEST PUSH1 0x0 PUSH2 0x122A DUP3 PUSH2 0x1111 JUMP JUMPDEST SWAP2 POP PUSH2 0x1235 DUP4 PUSH2 0x1111 JUMP JUMPDEST SWAP3 POP DUP3 DUP3 SUB SWAP1 POP PUSH1 0xFF DUP2 GT ISZERO PUSH2 0x124E JUMPI PUSH2 0x124D PUSH2 0x10E2 JUMP JUMPDEST JUMPDEST SWAP3 SWAP2 POP POP JUMP JUMPDEST PUSH1 0x0 PUSH2 0x125F DUP3 PUSH2 0x9AB JUMP JUMPDEST SWAP2 POP PUSH2 0x126A DUP4 PUSH2 0x9AB JUMP JUMPDEST SWAP3 POP DUP3 DUP3 ADD SWAP1 POP DUP1 DUP3 GT ISZERO PUSH2 0x1282 JUMPI PUSH2 0x1281 PUSH2 0x10E2 JUMP JUMPDEST JUMPDEST SWAP3 SWAP2 POP POP JUMP INVALID LOG2 PUSH5 0x6970667358 0x22 SLT KECCAK256 DUP15 SWAP9 0x4C CALLDATACOPY 0xD5 DUP14 0xCA 0xCC 0xCE GASPRICE 0xE BLOCKHASH 0xC3 MLOAD SUB CALLDATALOAD 0xFC 0xC6 SWAP7 0x1F OR 0xF9 PC 0xEA 0x4C KECCAK256 0xC1 PUSH26 0x35203B5564736F6C634300081800330000000000000000000000 "
        },
        "methodIdentifiers": {
          "candidates(uint256)": "3477ee2e",
          "getCandidates()": "06a49fce",
          "getStateList()": "50696b88",
          "getVotes()": "0dc96015",
          "states(uint256)": "017a9105",
          "vote(string,string,string)": "95f59fe1"
        }
      }
    }
  }
}